:4000000000800020110000004D0600004D06000008B5044B1A6803F53F5302331A6000F035FB00BFFA46004010B5054C237833B9044B13B10448AFF300800123237010BDA1
:400040004881FF1F0000000074280000084B10B51BB108490848AFF300800848036803B910BD074B002BFBD0BDE81040184700BF000000004C81FF1F74280000C880FF1FCA
:400080000000000038B5012A13D10C460A4901F081FD0A4901F032FE0546E0B200F048FC284601F063FF80B200F066FB00F0B6FB38BD00F04DFB38BD00FF7F470000C842D5
:4000C00038B5012A13D10C460A4901F063FD0A4901F014FE0546E0B200F030FC284601F045FF80B200F0C4FB00F014FC38BD00F0ABFB38BD00FF7F470000C8422DE9F04F97
:4001000083B0804691461C460C9F002000F032FC002000F077FC00F025FC80EAE075A5EBE07532E0012221464748FFF7ABFF012221464648FFF7C4FF00F014FC054600F095
:4001400011FC80EAE076A6EBE07600F053FC0028B8BF4042361A00F005FC834600F04AFCDFF8F0A0009680EAE073A3EBE0738BEAEB72A2EBEB723649504601F057FF5046E2
:4001800001F080F9642001F09BFB002DB8BF6D4207EB87039D42C5DB00F0E4FB01F0A6FC054600F027FC01F0A1FC0146284601F0A5FD20F00040414601F0ECFC01222146AC
:4001C000FFF77EFF012221464046FFF75BFF00F0C9FB01F08BFC0546384601F087FC0146284601F08BFD20F0004001F099FE824600F0B8FB054600F0FDFB2D1A00F0B2FB3B
:40020000834600F0F7FB134E009503465A461249304601F00BFF304601F034F9504601F065FC494601F068FE0028B5D00025002221462846FFF744FF002221462846FFF717
:4002400021FF03B0BDE8F08F0000F041F628F44178280000D481FF1FA828000000B583B062B600F071FB00F0B3FB00F0F9FB01F0EFF800F05DFC00F0C5FC01F047F800231D
:400280001D4A13601D4A1360002000F073FB002000F0B8FB00F014FD01F04CF8002001F051F801F067F80028B8BF4042144D286000F0F0FC134C2A681349204601F0B6FE2B
:4002C000204601F0DFF84FF47A7001F0F9FA4FF47A7001F0F5FA002000F04CFB002000F091FB0A484FF496730093002302460146FFF704FFEBE700BFCC81FF1F4483FF1F02
:400300003C83FF1F7483FF1FD828000000004842FEE700BFF0B40022174611E050F82760F3B226F0FF0608E001EB420511F812406D78A5550132013BDBB2002BF4D1013781
:40034000272FEBD9F0BC7047164B1B78DBB203F00701154A11701B09013213700222134B1A700422A3F5A4531B3B1A70012203F686531A7003F6D3031A7020230C490B703E
:4003800005310B707C310A700A4A1370802250310A702C310B70084B1A704422A3F28E231A707047CF0100496E58004042580040035A0040D35A0040045B004008B50A46A0
:4003C000002101F02AFE08BD08B501F01BFE08BD38B50024344B1C80502202331A70012202331A801823314A13701721023211800232137033210232118002321370042240
:400400002B492C48FFF7E0FF02222B4B1A7008224FF040231A70032103F500731970274B1B78DBB226490B70264B1A8041F25122023B1A8019250CE0234B1B7803F0010347
:4004400043EA440404F003044FF4F07001F084FA013D0DB1032CEFD115B90320FFF758FF1A4B4FF480721A8007221A70002218490A704820023108701A700222033B1A7064
:4004800004220A331A70134A137843F00F031370013A137843F001031370013A137843F08003137038BD00BF8040004086400040D80E0048004100400043004008010049E2
:4004C000A146004022420040254200400440004006400040A243004038B572B6434A137843F00403137000240CE0414D630019194A0011462A44084691882858FFF75EFFF5
:400500000134E4B2082CF0D900240CE03848A20011194B000344B3F84020D96B986BFFF753FF0134E4B2022CF0D932494FF09040FFF7F0FE0A25304B1D7040F20322373B3B
:400540001A802E4A03F534430C331A602C4A03F528631A602B4A137843F0020313701032137843F002031370274C237843F040032370A2F58632513A137843F01003137046
:40058000082222492248FFF71FFF2A4621492248FFF71AFF082221492148FFF715FF082220492148FFF710FF082220492048FFF70BFF08221F492048FFF706FF1F4A1378E9
:4005C00043F0080313701E4D61232B70FFF700FF81232B7001221B4B1A70FFF7B5FE0E2221461948FFF7F0FE38BD00BFE846004004290000A000004883580040040400C4C6
:400600000404048403500140A0430040A40E004802510040AC0E0048C0510040B80E0048F2510040C00E004812510040C80E004822510040D00E00483251004022430040EA
:400640000048004004000840B043004008B501F0ADFC03680C2B00D1FEE7FEE708B5094B1A681044084BC31A802B02DC054B186005E001F09BFC0C2303604FF0FF321046B2
:4006800008BD00BFCC80FF1FB883FF1F08B5104E104D16E029686B68AC68002204E051F8040B43F8040B0432A242F8D1E868002203E0002143F8041B04328242F9D11035A9
:4006C000013E002EE6D101F077FCFFF7C7FDFEE701000000B429000008B5104A104B1A60104A136843F40073136000230AE0032B03D80D4A52F8231000E00C490C4A42F868
:40070000231001332F2BF2D90A4B1A780A4B1A70074A0A4B1A60FFF7DFFE08BD0004FA050CED00E014ED00E0000000004D0600000080FF1FBC760040C080FF1F08ED00E05C
:40074000024A137843F080031370704779640040024A137803F07F031370704779640040014B1880704700BF12680040014B1880704700BF92680040014B1880704700BFF0
:4007800052680040014B1870704700BF8A640040014B1878704700BF6A640040014B188880B27047B268004008B501E0FFF7F6FFFFF7EEFF10F0100FF8D108BD10B5154AFB
:4007C000137803F0C00343F0090313702032137843F001031370104C237843F0010323704FF6FF70FFF7BCFF4FF6FF70FFF7BEFF7F20FFF7C1FF0020FFF7C4FF01F0B4F807
:40080000237843F01003237001F0B2F8FFF7CCFF10BD00BF796400409A64004008B5054B1B7823B9FFF7CAFF0122024B1A70FFF787FF08BD6481FF1F024A137843F08003FB
:400840001370704778640040024A137803F07F031370704778640040014B1880704700BF146A0040014B1880704700BF946A0040014B1880704700BF546A0040014B1870A4
:40088000704700BF8B650040014B1878704700BF6B650040014B188880B27047B46A004008B501E0FFF7F6FFFFF7EEFF10F0100FF8D108BD10B5154A137803F0C00343F04C
:4008C0000903137002F59172137843F0010313700F4C237843F0010323704FF6FF70FFF7BBFF4FF6FF70FFF7BDFF7F20FFF7C0FF0020FFF7C3FF01F037F8237843F0100373
:40090000237001F035F8FFF7CBFF10BD786400409B65004008B5054B1B7823B9FFF7CAFF0122024B1A70FFF787FF08BD6581FF1F014B1870704700BF7A650040014B187066
:40094000704700BF79650040054A137843F0020313701032137843F002031370704700BFA243004008B500F0B9FDA0F5004000B208BD00BF08B5002803DB80B280F4004014
:4009800002E0A0F5004080B200F0A2FD08BD00BF024B187800F00F00704700BF67640040014B1870704700BF8764004008B50F20FFF7F6FFFFF7ECFF00F0D6FF034A137814
:4009C00043F01003137000F0D3FF08BD9764004008B500F0D5FD4FF4004000F079FD044B1B7813B90122024B1A70FFF7DFFF08BD6681FF1F08B500F0EBFDA0F5004000B2A2
:400A000008BD00BF08B5002803DB80B280F4004002E0A0F5004080B200F0D4FD08BD00BF024B187800F00F00704700BF64640040014B1870704700BF8464004008B50F20A3
:400A4000FFF7F6FFFFF7ECFF00F08EFF034A137843F01003137000F08BFF08BD9464004008B500F007FE4FF4004000F0ABFD044B1B7813B90122024B1A70FFF7DFFF08BD07
:400A80006781FF1F084A137843F0010313701032137843F00103137002F5A5521E32137843F0800313707047A9430040044A137803F0FC0300F0030018431070704700BF1E
:400AC00001580040072809D8054B1A7802F08F021A701A780001C0B210431870704700BF02580040032809D8054B1A7802F0F3021A701A788000C0B210431870704700BF3A
:400B00000258004010B50224084B1C700C2201331A70012201331A700420FFF7D3FF2046FFF7E0FF0320FFF7C1FF10BD0058004008B5054B1B7823B90122034B1A70FFF7B2
:400B4000E1FFFFF79FFF08BD6881FF1F054A137843F0010313701032137843F001031370704700BFA8430040054A137803F0FE0313701032137803F0FE031370704700BF6E
:400B8000A8430040054B1A7802F0FD021A701A7800F0020010431870704700BF20580040014B1870704700BF805B0040094B1B7803F00C035B08084A127812F0040F00D0AE
:400BC000013303F1924393F82031DBB2034A1370704700BF20580040215800400846004008B51422064B1A700133002018701A78D2B21A70FFF7C6FFFFF7D8FF08BD00BFF4
:400C00002058004008B5074B1B7823B9FFF7E8FF0122044B1A70FFF799FF0720FFF7C0FF08BD00BF6981FF1F044B1B7813F0200F03D1034B1A78034B5A707047215800405F
:400C4000805B00406C81FF1F0E4B1B7813F0200F16D10D4B1B7813F0080F0DD00A4B1A7802F0F7021A70094A5178094A11701A7842F008021A707047044B5A78044B1A7012
:400C8000704700BF21580040875A00406C81FF1F805B004008B5084B1B7813F0010F03D00122064B1A7002E00022044B1A70FFF75BFFFFF7B9FF08BDA84300406C81FF1F61
:400CC00008B5FFF7C1FF054B1B78012B05D1FFF73DFF034B1878FFF763FF08BD6C81FF1F805B004038B59DF81040651EEDB2032D51D8013809282ED8DFE800F0052D2D0571
:400D00002D2D0F192D230F2B03D92548007840B222E02448007840B21EE00F2B03D92248007840B218E02148007840B214E00F2B03D91F48007840B20EE01E48007840B2D0
:400D40000AE00F2B03D91C48007840B204E01B48007840B200E0002001EB401101FB02F2D20B91B20D2B0BD8C3F10E0192B20A4191B2621E124800EB82020133937005E092
:400D8000631E0F4A02EB83030F229A70013C0C4B23F8241038BD002000F090FD38BD00BF180100491C010049190100491D0100491A0100491E0100491B0100491F01004956
:400DC0007081FF1FF8B5074600F0CEFD06460D4D2B7843F003032B700B4C237843F0030323700A4B1F70032000F080FD2B7803F0FC032B70237803F0FC032370304600F02A
:400E0000B7FDF8BDF8460040F946004092580040F8B504460022BB4B1A74012859D17822B94B1A70002502331D700A2201331A707F23B64A13700132157001321370B44B97
:400E40001D7001331D7001331D7001260A331E70502203F527631A70272201331A702C2201331A7001331D70552203331A705A2201331A70052201331A70022702331F70DC
:400E8000122201331A70282201331A70EB2201331A704420FFF796FF58229E4B1A7001331D7005331F7001331F7001331D7001331D704FF4FA22984B1A603146304600F02B
:400EC000FFFB3146072000F07FFC94491D2000F017FD022C5AD138228B4B1A70042202331A70072201331A70002501331D7001331D703F2201331A7002331D7001331D70A9
:400F000001331D7001260A331E70502203F527631A70272201331A702C2201331A7001331D70552203331A705A2201331A70052701331F7002331E70112201331A7019225D
:400F400001331A70972201331A704420FFF73AFF5822704B1A7001331D7005331F7001331E7001331D700A2201331A704FF4FA42694B1A603146082000F0A2FB3146252060
:400F800000F022FC66491D2000F0BAFC032C5AD138225D4B1A70042202331A70072201331A70002501331D7001331D703F2201331A7002331D7001331D7001331D700126AE
:400FC0000A331E70502203F527631A70272201331A702C2201331A7001331D70552203331A705A2201331A70052701331F7002331E70112201331A70192201331A7097220E
:4010000001331A704420FFF7DDFE5822414B1A7001331D7005331F7001331E7001331D700A2201331A704FF4FA423B4B1A603146082000F045FB3146252000F0C5FB3949FC
:401040001D2000F05DFC042C5AD138222E4B1A70042202331A70072201331A70002401331C7001331C703F2201331A7002331C7001331C7001331C7001250A331D70502200
:4010800003F527631A70272201331A702C2201331A7001331C70552203331A705A2201331A70052601331E7002331D70112201331A70192201331A70972201331A7044206C
:4010C000FFF780FE5822134B1A7001331C7005331E7001331D7001331C700A2201331A704FF4FA420C4B1A602946082000F0E8FA2946252000F068FB0B491D2000F000FCEC
:40110000F8BD00BF7081FF1F004E0040044E0040084E004094580040AC83FF1FE1130000E5130000E9130000ED1300002DE9F04182B0384E4FF0010886F80080364F002427
:401140007C74102000F0AAFA102000F02BFB07211D2000F0E9FB0425304B1D7001331C7007331C702E4A137843F0180313702D4B1C7003F2F5231C7001331C700A22A3F293
:4011800009331A7001331C7002331C705B2205331A705E2201331A7004331C701423224A1370CDF800804FF4004249F2DA012846FFF798FD0223009310234FF4004249F2FE
:4011C000DA012846FFF78EFD0323009310234FF4004249F2DA012846FFF784FD009510234FF4004249F2DA012846FFF77BFD3378013B07EB83039A780C4B1A703378013B41
:4012000037F823200A4B1A803078FFF701FE02B0BDE8F081D080FF1F7081FF1F96580040075B004093580040014E00400E4E00400C4E004070B500F097FB06462A4B1B78B0
:401240002A4B1A7842F001021A701A7842F010021A7010331A7842F001021A701A7842F010021A70224D2B7843F002032B70214C237843F0020323701F4A137843F003036F
:401280001370032000F032FB2B7803F0FD032B70237803F0FD032370184A137843F0060313707A22164B1A70164A137843F0010313701032137843F0010313700F3A1378E6
:4012C00043F0010313701032137843F0010313704FF000530C4A1360A2F5C0721360304600F046FB70BD00BFD080FF1FAA430040F8460040F94600409158004077580040B3
:4013000082580040A143004080E200E008B5084B9B7C4BB9064BDB7C13F0FF0F01D1FFF705FF0122024B9A74FFF784FF08BD00BF7081FF1F024A137843F0010313707047AB
:40134000004E0040094B1B7C13F0FF0F03D0074B5B7CDBB203E0064B1B7803F00103012B01D00028EED01846704700BF7081FF1F014E0040154B1B7803F00303012B07D850
:40138000134B1888023B1B889BB243EA004013E0022B0AD10E4B1888023B1B7843EA00430C4A107843EA002006E00B4B188883B2074A108843EA0040084B1B7C13F0FF0FD4
:4013C00002D00022054B5A74704700BF144E0040124E0040114E0040104E00407081FF1F704700BF704700BF704700BF704700BF7222084B1A70202204331A700622A3F2CE
:4014000067131A70472210331A70002252331A70704700BF8465004010B500F0A5FA04460A4A137843F0200313700432137843F010031370A2F20512137843F010031370C3
:4014400000F02EFA204600F093FA10BD9465004008B5054B1B7823B9FFF7CAFF0122024B1A70FFF7D9FF08BD8481FF1F034B1B7813F0040FFAD1024B18707047636400402B
:401480004064004038B5074B1B782BB938BDFFF7EDFF0134A4B201E005460024285D0028F5D138BD8481FF1F024A137843F080031370704776640040014B1870704700BF2A
:4014C0008C640040014B1878704700BF6C640040014B1880704700BF0E680040024B1B78024B188880B27047076400408E680040014B188880B270478E680040014B1880C4
:40150000704700BF4E680040014B1880704700BF6E68004008B501E0FFF7EAFFFFF7D2FF10F0400FF8D108BD08B5134B1A7802F0F8021A701A7802F0FC021A70FFF7EAFFA0
:401540004FF40040FFF7DAFF4FF40040FFF7C0FF0020FFF7B1FFFFF7B5FF4FF40040FFF7D3FF00F001FA054A137843F01003137000F0FEF908BD00BF766400409C640040D3
:4015800008B5054B1B7823B9FFF7CEFF0122024B1A70FFF789FF08BD8681FF1F024A137843F080031370704776650040014B1870704700BF87650040014B1878704700BFE0
:4015C00067650040014B1880704700BF0C6A0040024B1B78024B188880B27047066500408C6A0040014B188880B270478C6A0040014B1880704700BF4C6A0040014B1880F9
:40160000704700BF6C6A004008B501E0FFF7EAFFFFF7D2FF10F0400FF8D108BD08B5134B1A7802F0F8021A701A7802F0FC021A70FFF7EAFF4FF40040FFF7DAFF4FF400401A
:40164000FFF7C0FF0020FFF7B1FFFFF7B5FF4FF40040FFF7D3FF00F087F9054A137843F01003137000F084F908BD00BF766500409765004008B5054B1B7823B9FFF7CEFF60
:401680000122024B1A70FFF789FF08BD8781FF1F014B188880B2704780400040034B1A7800F0F80010431870704700BF82400040024B187800F00700704700BF824000408B
:4016C00070B505460E46FFF7F3FF0446FFF7E0FFA84256D02B4B1B7803F0010294B900B185B938B9284B1D80284A137803F0BF03137070BD254A137843F040031370224B11
:401700001D8070BD22B3002321490B7001240F310C7004310B700C390B7803F07F030B701A4B1B7813F0080F00D08DB9194B18800721013B1970164B1B7813F0010FFAD1D6
:4017400010490B7803F0FE030B700021104B19700C4B1B7813F0010F0DD00E4B1D800EB1032200E001220A4B1A70094B1B7813F0010FFAD170BD044B1D8002490B78134381
:401780000B7070BDA243004080400040824000400140004002400040014B188880B2704700410040034B1A7800F0F80010431870704700BF02410040024B187800F0070091
:4017C000704700BF0241004070B505460E46FFF7F3FF0446FFF7E0FFA84256D02B4B1B7803F0010294B900B185B938B9284B1D80284A137803F0BF03137070BD254A13787D
:4018000043F040031370224B1D8070BD22B3002321490B70012413310C7004390B7008390B7803F07F030B701A4B1B7813F0080F00D08DB9194B18800721013B1970164BD8
:401840001B7813F0010FFAD110490B7803F0FE030B700021104B19700C4B1B7813F0010F0DD00E4B1D800EB1032200E001220A4B1A70094B1B7813F0010FFAD170BD044BD0
:401880001D8002490B7813430B7070BDA143004000410040024100400140004002400040054A137843F0080313701032137843F008031370704700BFA243004001BE70475A
:4018C00010B5044605E0084B186800F045F8A4F50044B4F5004FF6D8034B586800FB04F000F03AF810BD00BFD480FF1F08B5034B1B7A00FB03F000F02FF808BDD480FF1F58
:4019000070B504460E46074B1D681F2802D90020FFF7D4FF04F01F04103455F8240045F8246070BD08ED00E038B504460D46072902D90020FFF7C2FF1F2C02D90020FFF7CB
:40194000BDFF04F01F0000F1604000F564406D01EDB2057038BD00BF0230800803D000BF01380046FCD17047EFF3108072B6704780F31088704700BF80F0004002E000BFC6
:4019800081F0004142001FBF5FEA410392EA030F7FEA226C7FEA236C6AD04FEA1262D2EB1363C1BFD218414048404140B8BF5B42192B88BF704710F0004F40F4000020F054
:4019C0007F4018BF404211F0004F41F4000121F07F4118BF494292EA030F3FD0A2F1010241FA03FC10EB0C00C3F1200301FA03F100F0004302D5494260EB4000B0F5000F08
:401A000013D3B0F1807F06D340084FEA310102F10102FE2A51D2B1F1004F40EBC25008BF20F0010040EA03007047490040EB000010F4000FA2F10102EDD1B0FA80FCACF1CB
:401A4000080CB2EB0C0200FA0CF0AABF00EBC25052421843BCBFD0401843704792F0000F81F4000106BF80F400000132013BB5E74FEA41037FEA226C18BF7FEA236C21D040
:401A800092EA030F04D092F0000F08BF0846704790EA010F1CBF0020704712F07F4F04D1400028BF40F00040704712F100723CBF00F50000704700F0004343F0FE4040F444
:401AC000000070477FEA226216BF08467FEA23630146420206BF5FEA412390EA010F40F4800070474FF0000304E000BF10F0004348BF40425FEA000C08BF704743F09643AE
:401B000001464FF000001CE050EA010208BF70474FF000030AE000BF50EA010208BF704711F0004302D5404261EB41015FEA010C02BF84460146002043F0B64308BFA3F1C8
:401B40008053A3F50003BCFA8CF2083AA3EBC25310DB01FA02FC634400FA02FCC2F12002BCF1004F20FA02F243EB020008BF20F00100704702F1200201FA02FCC2F12002DA
:401B800050EA4C0021FA02F243EB020008BF20EADC7070474FF0FF0C1CEAD0521EBF1CEAD15392EA0C0F93EA0C0F6FD01A4480EA010C400218BF5FEA41211ED04FF000637C
:401BC00043EA501043EA5111A0FB01310CF00040B1F5000F3EBF490041EAD3715B0040EA010062F17F02FD2A1DD8B3F1004F40EBC25008BF20F00100704790F0000F0CF096
:401C0000004C08BF49024CEA502040EA51207F3AC2BFD2F1FF0340EAC250704740F400004FF00003013A5DDC12F1190FDCBF00F000407047C2F10002410021FA02F1C2F1C5
:401C4000200200FA02FC5FEA310040F1000053EA4C0308BF20EADC70704792F0000F00F0004C02BF400010F4000F013AF9D040EA0C0093F0000F01F0004C02BF490011F446
:401C8000000F013BF9D041EA0C018FE70CEAD15392EA0C0F18BF93EA0C0F0AD030F0004C18BF31F0004CD8D180EA010000F00040704790F0000F17BF90F0004F084691F0BA
:401CC000000F91F0004F14D092EA0C0F01D142020FD193EA0C0F03D14B0218BF084608D180EA010000F0004040F0FE4040F40000704740F0FE4040F4400070474FF0FF0C06
:401D00001CEAD0521EBF1CEAD15392EA0C0F93EA0C0F69D0A2EB030280EA010C49024FEA402037D04FF0805343EA111143EA10130CF000408B4238BF5B0042F17D024FF417
:401D4000000C8B4224BF5B1A40EA0C00B3EB510F24BFA3EB510340EA5C00B3EB910F24BFA3EB910340EA9C00B3EBD10F24BFA3EBD10340EADC001B0118BF5FEA1C1CE0D1BC
:401D8000FD2A3FF650AF8B4240EBC25008BF20F0010070470CF0004C4CEA50207F32C2BFD2F1FF0340EAC250704740F400004FF00003013A37E792F0000F00F0004C02BFFA
:401DC000400010F4000F013AF9D040EA0C0093F0000F01F0004C02BF490011F4000F013BF9D041EA0C0195E70CEAD15392EA0C0F08D142027FF47DAF93EA0C0F7FF470AF19
:401E0000084676E793EA0C0F04D14B023FF44CAF08466EE730F0004C18BF31F0004CCAD130F000427FF45CAF31F000437FF43CAF5FE700BF4FF0FF3C06E000BF4FF0010C0F
:401E400002E000BF4FF0010C4DF804CD4FEA40024FEA41037FEA226C18BF7FEA236C11D001B052EA530C18BF90EA010F58BFB2EB030088BFC81738BF6FEAE17018BF40F08E
:401E8000010070477FEA226C02D15FEA402C05D17FEA236CE4D15FEA412CE1D05DF8040B704700BF844608466146FFE70FB5FFF7C9FF002848BF10F1000F0FBD4DF808EDBB
:401EC000FFF7F4FF0CBF012000205DF808FB00BF4DF808EDFFF7EAFF34BF012000205DF808FB00BF4DF808EDFFF7E0FF94BF012000205DF808FB00BF4DF808EDFFF7D2FFB7
:401F000094BF012000205DF808FB00BF4DF808EDFFF7C8FF34BF012000205DF808FB00BF4FEA4002B2F1FE4F0FD34FF09E03B3EB12620DD94FEA002343F0004310F0004F6E
:401F400023FA02F018BF404270474FF00000704712F1610F01D1420205D110F0004008BF6FF0004070474FF00000704742000ED2B2F1FE4F0BD34FF09E03B3EB126209D4DB
:401F80004FEA002343F0004323FA02F070474FF00000704712F1610F01D1420202D14FF0FF3070474FF00000704700BF014B1868704700BF4481FF1F0E4B70B51E460E4CFC
:401FC0000025E41AA410A54204D056F8253098470135F8E700F0DCFC084B094C1E46E41AA4100025A54204D056F8253098470135F8E770BD9C2900009C2900009C2900003F
:40200000A429000010B5431E0A44914204D011F8014B03F8014FF8E710BD03460244934202D003F8011BFAE7704700000EB400B54FF402719CB0ADF814106FF00041049110
:4020400007914FF6FF711DAB02900690084853F8042BADF81610006802A9019300F064F8029B00221A701CB05DF804EB03B070474481FF1F2DE9F0478E6882469E420C46B8
:40208000914698463ED88A8912F4906F3AD02568096902236F1A656905EB450595FBF3F57B1C43449D4238BF1D4653050FD5294600F040FB064698B13A462169FFF7A2FFA3
:4020C000A38923F4906343F08003A38113E02A4600F08EFB064670B92169504600F0DEFA0C23CAF80030A3894FF0FF3043F04003A381BDE8F08726613E4426604646656145
:40210000ED1BA560464528BF464649463246206800F0A8FAA36800209B1BA36023681E442660BDE8F08700002DE9F04F9DB003938B8980461C060D4616460DD50B695BB9B3
:40214000402100F0F7FA2860286118B90C23C8F80030CDE040236B610023099320238DF82930DFF89CB130238DF82A3037463C4614F8013B1BB9B7EB060910D003E0252B2B
:40218000F9D02746F3E74B46324629464046FFF771FF013000F0A780099B4B4409933B78002B00F0A08000234FF0FF3204930793059206938DF853301A9301260522217816
:4021C0004E4800F041FA671C049B38B14B4A3C46801A06FA00F018430490EFE7D90644BF20228DF853201A0744BF2B228DF8532022782A2A03D0079A00210A200BE0039AF3
:40220000111D12680391002A10DA524243F00200079204900BE027463B780134303B092B03D800FB02320121F5E701B107923B782E2B1ED17B782A2B0AD1039B02371A1DFA
:402240001B680392002BB8BF4FF0FF33059310E0002319460593781C0A2407463A780130303A092A03D804FB01210123F5E703B1059103223978224800F0E6F940B1402359
:40228000CBEB000003FA00F0049B013718430490397806221B487E1C8DF8281000F0D4F988B1194B33B9039B073323F007030833039314E003AB00932A46144B04A94046DF
:4022C000AFF3008007E003AB00932A460F4B04A9404600F093F8B0F1FF3F824603D0099B5344099342E7AB895B0601D4099801E04FF0FF301DB0BDE8F08F00BF5C29000013
:40230000622900006629000000000000752000002DE9F04791461F460A698B6806469342B8BF1346C9F8003091F843200C46DDF8208012B10133C9F800302368990642BF57
:40234000D9F800300233C9F80030256815F0060510D104F1190A07E00123524639463046C04701301AD00135E368D9F800209B1A9D42F1DB94F843302268003318BF01235D
:4023800092060FD5E118302081F843005A1C94F845102244023382F8431003E04FF0FF30BDE8F08704F1430239463046C0470130F4D02268D9F80050E36802F00602042A27
:4023C00008BF5D1B2269A3680CBF25EAE57500259342C4BF9B1AED184FF000091A344D4509D00123224639463046C0470130D5D009F10109F3E70020BDE8F0872DE9F043DB
:4024000017460A7E85B06E2A984606460C460C9B01F1430E00F0AE8011D8632A22D009D8002A00F0BB80582A40F0CA8081F84520834955E0642A1ED0692A1CD0C0E0732AB5
:4024400000F0B08009D86F2A2ED0702A40F0B8800A6842F020020A603EE0752A24D0782A3AD0ADE01A6801F14205111D1960136884F84230A8E021681A6811F0800F02D0E8
:40248000111D196008E011F0400F02F10401196002D0B2F9003000E01368002B3CDA2D225B4284F8432037E021681A6811F0800F02D0111D196007E011F0400F02F104015E
:4024C000196001D0138800E01368227E5C496F2A14BF0A2208221BE078225A4984F845202268186812F0800F00F104051D6003D1550601D5038800E00368D00744BF42F083
:40250000200222601BB9226822F0200222601022002084F8430001E049490A226568002DA56008DB206820F0040020602BB9002D7DD175460CE0002B79D07546B3FBF2F070
:4025400002FB1033CB5C05F8013D03460028F5D1082A0BD12368DA0708D5236962689A42DEBF302305F8013C05F1FF35C5EB0E0323612EE008681A6810F0800F496903D04C
:40258000101D1860136808E010F0400F02F104001860136801D0198000E0196000232361754616E01A68111D1960156800216268284600F049F808B1401B6060636804E00C
:4025C00004F1420584F8422001232361002384F84330CDF800803B4603AA21463046FFF797FE013002D14FF0FF3026E023692A4639463046C0470130F5D023689B0710D5B4
:40260000002504F1190907E001234A4639463046C0470130E7D00135E368039A9B1A9D42F2DBE068039B9842B8BF184605E00B7804F1420584F842308AE705B0BDE8F083FB
:402640006D2900007E29000010B5C9B202449042034605D01C7801308C42F8D1184610BD002010BD884210B501EB020301D8421E0BE09842FBD28118D21AD34204D013F86F
:40268000014D01F8014DF8E710BD994204D011F8014B02F8014FF8E710BD000038B50546002944D051F8043C0C1F002BB8BFE41800F0D4F81E4A1368114613B9636014601F
:4026C00030E0A3420DD92268A018834201BF18685B681218226063600C6023E0A24203D813465A68002AF9D118681918A1420BD12168014458188242196013D11068526848
:40270000014419605A600DE002D90C232B6009E021686018824201BF106852680918216062605C602846BDE8384000F098B838BD8C81FF1F70B5CD1C25F0030508350C2D53
:4027400038BF0C25002D064601DBA94202D90C23336046E000F082F8234B1C681A462146A1B10B685B1B0ED40B2B03D90B60CC18CD501EE08C420BBF63684B681360636026
:4027800018BF0C4615E00C464968E9E7174C23681BB9304600F052F820602946304600F04DF8431C18D0C41C24F00304A0420DD12560304600F053F804F10B00231D20F094
:4027C0000700C31A0ED05A42E25070BD211A304600F034F80130EBD10C233360304600F03EF8002070BD00BF8C81FF1F8881FF1FF8B5074615460E4621B91146BDE8F840EF
:40280000FFF798BF1AB9FFF749FF2846F8BD00F027F885420ED929463846FFF78BFF044650B131462A46FFF7EDFB31463846FFF735FF01E03046F8BD2046F8BD38B5064C58
:402840000023054608462360FDF708FF431C02D1236803B12B6038BDB083FF1F7047704751F8040C0028BEBF091851F8043CC0180438704700000000436F756E74206C6501
:4028800066743A20256420436F756E742072696768743A2025642C2064696666203D20256C64200A20000000436F756E74206C6566743A2025686420436F756E742072692D
:4028C0006768743A202568642C2064696666203D20256C64200A20004920676F74206120736D616C6C206469636B203D20256C750A00000044697374616E63653A202566E4
:40290000200A2000004F00400C00405100403000000001400010001401400004801801400002001B0140000100400140000A004C0140000200500140200000006052004012
:402940009C0D0048060000180140A40D00488000801A0140240E004880004300232D302B2000686C4C00656667454647003031323334353637383941424344454600303184
:4029800032333435363738396162636465660000F8B500BFF8BC08BC9E4670474D000000D9060000F8B500BFF8BC08BC9E46704729000000C8290000C880FF1F80000000EC
:4029C000700200000000000000000000B883FF1F010000000000E02EC05D00001800000000366E010000000000000000000000000000000000000000000000000000000023
:402A0000000000005A290000000000000000000000000000000000000000000000000000000000000000000000000000000000000000000000000000000000000000000013
:402A400000000000E480FF1F0000000000000000000000000000000000000000000000000000000000000000000000000000000000000000000000000000000000000000D4
:402A80000000000000000000000000000000000000000000000000000000000000000000000000000000000000000000000000000000000000000000000000000000000016
:402AC00000000000000000000000000000000000000000000000000000000000000000000000000000000000000000000000000000000000000000000000000000000000D6
:402B00000000000000000000000000000000000000000000000000000000000000000000000000000000000000000000000000000000000000000000000000000000000095
:402B40000000000000000000000000000000000000000000000000000000000000000000000000000000000000000000000000000000000000000000000000000000000055
:020000040003F7
:0200000480007A
:40000000024F004004520040056400400465004060000140360101404502014043030140450401404C0501405006014046070140660801404F0901405D0A0140470B01405B
:400040003F0C0140340D0140040E0140020F01403E1401403F1501405E1601405117014010180140491901401D1A0140491B0140034001400F410140104201400A430140E8
:400080000444014003460140024701400C4801400F490140084C0140094D01400C50014001200A870010086009501911830F840F870F8A0D8C6F8472876F88388B0D020864
:4000C0000403060407010B010C030E0C13061519172219381A051B051D2021122320240A2528260428032A042D212F18313E3501360F3A803F104012410345EB46C0470E48
:40010000481B49FF4AFF4BFF4EF04F44500C580459045A045C335D035F0166C06A406B02810182018306870388068C018F1091109501970E990C9A029B039C069F08A30C2C
:40014000A404A910AA01B001B110B406B50FB820BB20BE11BF01C002C540C9FFCA07CBFFCC40CD20CEF0CF05D008D804D904DA04DC30DD03DF01E040E1A8E240E320018002
:4001800002100390068407050B040E010F04120413081510170819C01A011C801D20200821022621270829442B802D102F80310232A0330436A0370538243B043D803E8167
:4001C0003F04400442014304452049064E804F0450105210530482018840C0DDC2C2C466CAABCCFFCED6D02EE62003500402071009030A010B0C0F011105130A17301960E1
:400200001B101C011F202360240127082B042F02330F3570360338803B203F04580459045B045C335F01840C8530860189028B018C0C8D288E02951899019A109B069D0193
:400240009E209F02A008A201A501A60FA702A807AC0BAD30AE04B210B338B420B503B60FB704B908BB20D401D804D904DB04DC11DD30DF010184040407080A040B020E0179
:40028000114212081304170419801A241B101F8020202110224823042508270429802B102C122D202F80325836A13705388839643C843D103E01588059025A085B105F8061
:4002C0006D106F01844288708A028D088F809004920193089510988099029B189F05A102A2A0A540A780AC84C065C283C42FCAFACCFECEFED61FE020E610020404100508C8
:4003000009020A020B040D040E100F021001130114011502170419011A081E10200121022304250126012C0130103204330834033501360837063B803E013F14540F5804F7
:4003400059045B045C115D105F01830488018A028B048F049001920294029601970298019A029E04A204A804AF01B004B203B302B501B704BA08BE01BF40D804D904DB045E
:40038000DC11DF01010802060380070808200A420B100C020D080E0A0F011102120113041510170118201A801B901C401D08214022142684270829082B802C022F01302081
:4003C000320133083708382039803B083D903F01402043084C044F10580859025AA06D806F018140828085028F109110930C9488960898409A019D20A020A102A20BA5417A
:40040000AB01B010B110B580B601C04FC2FFC45DCA13CC47CEBED60FE003E60802040B021302150216011F01220428042E02300232043301340135023E043F1052805804C1
:4004400059045B045C115D105F01840C8504860288208E108F029210940B96049701980899029A019C209D04A20FA410A502A807AC0CAE01B010B104B302B40FB620B701CB
:40048000B880B902BE01BF04C036C105C9FFCAFFCBFFCDA0CF01D018D40FD804D904DA04DB04DC11DD11DF01E040E280E440E540E680E840EA80EC40ED20EE8000A4074022
:4004C00009800B940F20101411021209144016021710180C1A821D081E081F0120802140236027142810310432A03440350236043B483F20430448084A014B80580459016D
:400500005A805B207502800887048F04930494889642970298409A019B019C089D08A102A20AA310A501A708A920AA04B108B440C017C22FC4DFCA02CCDECE2AD002D20CC9
:40054000D60FE201E608EA4100CF010402300B020E0F130118301AC91D042073210424FD2602289E2A602C942E6030FF33013504370239203E013F1040634104452C4640D0
:40058000473E483B49FF4AFF4BFF4DAF4E074F0150185280580459045A045B045C105D115F016040628064406540668068406A806C406D206E8082208418880C8C188D025E
:4005C0009201960197019A209B02A301A814AE02B002B21CB401B501B620B702B808BE50BF40C040C103C9FFCAFFCBFFCDA0CF04D018D280D804D904DA04DB04DC11DD11A1
:40060000DF01E040E2C0E440E540E6C0E8C0EAC0ECC0EEC00054024004800740081009080A400C2010041340140215011718181219011A481B041C8021402210264827062C
:4006400029012C802E023010310432103502368039403A403D013E2041084240450147044C084E804F04562A734075028304851086808C0990449101941095109648978467
:40068000980499049B109C029E2A9F02A020A108A480A680A708AB04B008B110B204C09FC24EC4F3CA81CC96CEA8D0C3D220E410EC200430051606080708090E0A010C3077
:4006C0000D180E040F041110123C1302142C1610171E18201A041C021F012202241C2720280129182B023002311E3320343C360137013E014040410345D14702481349FF03
:400700004AFF4BFF4DAF4E0F4F0450185405580459045A045B045C115D115F01604062C06440654066C068C06AC06CC06EC0817F84CF863088738C948E60910E93F094FD66
:4007400095C59602973A98309AC99F01A09EA1FEA260A301A596A768A9A3AA0FAB5CB2FFB5FFBE04BF10D804D904DF0100640494080409820A040C040D040E2412901310CA
:4007800015021720180419521F04204021812310270429142C202F48300831023280340236083740385039083A103D014108424048104905510859415A08804081128204E9
:4007C00086108F409101945495329604970C9B309D029E2E9F02A020A218A480A510B020B101B608B710C0E7C26FC45ECAE6CCDBCE8ED003D60BE012ECE0030105080601AE
:40080000080E09020B040D020F041014120A130E141E150E180A190E1A141E20200124182606270828062A182B102C2030013101321E331E34203E11540F580459045B042A
:400840005C115D105F0584A38501865C887F8B018CC58D018E3A94FE9501960198969A68A201A302A80EA901AAF0B0FFB703BE01D804D904DC10DF010054012402100410F4
:40088000062009080A040C800D010E241120128015041604174219011D0C1E6820022280276029012A102D042F04310835243701384039203A043C403D203E065D125E48F1
:4008C000660867047D0188018B21C067C2F6C4FACA65CCE2CEFED6F0D860DE80E280E620B980BF40D904DF0126808A80000C0202040E0503070C080C090F0D0C0E02100417
:40090000110414021501160C180C190C1A021B031D0820082102240125032801290F2C012F03330F340E36013A203B2856025711580459045B045C335D305F01830186027C
:4009400091049201930299029B049D029F04A502A704AE04B002B204B301B401B706BB80D804D904DC11DF010004018202080710081109080E8010821114160218011990FA
:400980001E801F182004211C271228A029902F10309132043640371239283A403F025A20680269146B0870A0731081018302860288318A4C8B108C818D129220952C98A0BF
:4009C0009C109D109F08A301A501A708A880B104B312B510C02FC21EC48FCA4FCCBFCE8ED604E401EE011E011F012101350136013F104036410549FF4AFF4BFF4DA04F01D6
:400A000050185280580459045A045B045C015D115F016040628064406540668068406A806C406D206E808201841885028606882089028C148D048E0A901E94209704980AA4
:400A400099029A149C209F01A006A218A501A80EA902B01EB104B201B420B502B701B820BE10BF51C032C105C542C6C3C70EC81FC9FFCAFFCBFFCDAFCE07CF01D018D40FF0
:400A8000D804D904DA04DB04DC01DD11DF05E040E280E440E540E680E840EA80EC40ED20EE80002401220201080809800A400B040D8011021208188019091A441B121F80CD
:400AC0002251270429182F8030903104368039A8410842044508489049064A024E024F205180529459205A825B046214774078088221870189148C208D028F089004918077
:400B0000930494809640971098089A019D0D9F40A10AA20AA410A581A621A708A808AC10AE80B301B404B602C00FC28FC40ACA86CC1ECE0ED046D238D60FD806DE02E601B6
:400B4000E840EE2E83018C01920193019702AF02B102B501B601BE40BF10D804D904DB04DC10DF0103010452050809020C800F18148016081A011C541D802103222024A035
:400B8000250126102B012C202D812F083208330134023680371439023C843D023F20458047244C014E824F1057105E02654066206B018101854086118A028B128CC19181CE
:400BC0009480954097809B109C029F08A060A208A308A501AB04AE42B748C0F1C2E8C450CAF8CCF3CEF1D070D230D680D830E008E240E4F0E810030118012E01350136018E
:400C00004060410249FF4AFF4BFF4DA04F045018580459045A045B045C115D015F01604062C06440654066C068C06AC06CC06EC00452050809200C400E65120114801602C6
:400C4000172819801E221F102120268427042E622F123440360A37203A013C013E043F80432046204A084D014E08562157215D815E08694080028280888089088A058B10E0
:400C80008F68905395409A029C829D089F24A20AA302A601A701A810A940AE20B180B208B348B410B622B704C0F0C2F2C4F1CAF0CCF0CED1D044D224D6D0E2A0E4F4E86196
:400CC000EC8283028A02E6800008078008200F085F028640878088048F019B02A202C030C2C0D680E05007405704630183048701930198209E40A202AB04C020D440D64022
:400D0000E040E620EC207020900298209E409F01A202AB40B401DC20EC807C208820DE01E00145088508D0018D02E002270184209002970298209E409F01A202B020B70104
:400D4000C820E41006400B020C40500162028440900297029E40A202C020C2C0D480D840E41059025F026208660486089902D603D8031040700180018840AA04AF02C4086E
:400D8000DC01E201000A0101080A09010A020C020E02100A11011A0A1C0A1D01048400004000000080000007220051204400311001000E08000100028000001000018002F9
:400DC0006700002000078000000400006700000400070000070F60208010180020000000000040146205030001E0C0000AFFFFFF62A0F0410C000000180000000404040444
:400E0000133300010000000000004002001030100010101200000000000000000000000000000000FE0800004802010080000000C0040000CE0730000000081010000001E4
:400E4000300600003806C401200700000000C6103801C206000001103E07C00800002000000000446003000000D020102AFFFFFF00AF0F0418000000050000000404040440
:400E8000331100014000C0004040C000C000C000C000C00000000000000000000000000000000000C31010001000000080004884840084000000000000252500000000001C
:400EC00000FBFB00F00000000004000000000100C21111001100000007001801000000000000000000000000000000000000000000000000000000000000000000000000F2
:400F000000000000000000000000000000000000000000000000000000000000000000000000000000000000000000000000000000000000000000000000000000000000B1
:400F40000000000000000000000000000000000000000000000000000000000000000000000000000000000000000000000000000000000000000000000000000000000071
:400F80000000000000000000000000000000000000000000000000000000000000000000000000000000000000000000000000000000000000000000000000000000000031
:400FC00000000000000000000000000000000000000000000000000000000000000000000000000000000000000000000000000000000000000000000000000000000000F1
:0200000490006A
:0400000000004005B7
:0200000490105A
:04000000BC90ACAF55
:0200000490303A
:02000000866B0D
:0200000490402A
:4000000000000000000000000000000000000000000000000000000000000000000000000000000000000000000000000000000000000000000000000000000000000000C0
:400040000000000000000000000000000000000000000000000000000000000000000000000000000000000000000000000000000000000000000000000000000000000080
:400080000000000000000000000000000000000000000000000000000000000000000000000000000000000000000000000000000000000000000000000000000000000040
:4000C0000000000000000000000000000000000000000000000000000000000000000000000000000000000000000000000000000000000000000000000000000000000000
:0200000490501A
:0C00000000012E16106900012E2996D474
:00000001FF