:400000000080002011000000050400000504000008B5044B1A6803F53F5302331A6000F0F9F900BFFA46004010B5054C237833B9044B13B10448AFF300800123237010BD73
:400040003081FF1F0000000018060000084B10B51BB108490848AFF300800848036803B910BD074B002BFBD0BDE81040184700BF000000003481FF1F18060000C880FF1FF6
:400080000000000008B562B600F01EFA00F058FA002008BDFEE700BFF0B40022174611E050F82760F3B226F0FF0608E001EB420511F812406D78A5550132013BDBB2002B79
:4000C000F4D10137282FEBD9F0BC7047174B1B78DBB203F00701164A11701B09013213700222144B1A700422A3F5A4531B3B1A70402203F686531A70242203F6F3031A702E
:4001000020230D4A137010220C490A706C310B703F310B70802301310B702C310A70084A13704422074B1A70704700BFCF0100496E58004042580040235A0040285A004072
:40014000045B00407658004008B50A46002100F05AFA08BD08B500F04BFA08BD38B50024364B1C80502202331A70012202331A801823334A1370172232490A8002310B706C
:4001800002310A80304A13703321023211800232137004222D492E48FFF7DCFF02222D4B1A7008224FF040231A70032103F500731970294B1B78DBB228490B70284B1A80B1
:4001C00041F25122023B1A8019250CE0254B1B7803F0010343EA440404F003044FF4F07000F0CAF9013D0DB1032CEFD115B90320FFF750FF1C4B4FF480721A8007221A708E
:4002000000221A490A704820023108701A700222033B1A7004220A331A70154A137843F01F031370013A137843F001031370013A137843F08003137038BD00BF8040004054
:4002400086400040884000408E400040E8110048004100400043004008010049A146004022420040254200400440004006400040A243004038B572B64A4A137843F00403BC
:40028000137000240CE0484D630019194A0011462A44084691882858FFF756FF0134E4B2072CF0D900240BE03F48A20011194B0003441A8F596B186BFFF74CFF0134E4B289
:4002C000022CF1D939494FF09040FFF7E5FE0A24374B1C7040F20322373B1A80354A03F52A430C331A6002F1004280331A60324B324A1360324902F50072116002F5806264
:40030000136002F586422B32137843F0020313701032137843F0020313702A4D2B7843F040032B70A2F58632513A137843F010031370224601F17F7101F6A8512248FFF76D
:4003400009FF224621492248FFF704FF082221492148FFF7FFFE224620492148FFF7FAFE082220492048FFF7F5FE08221F492048FFF7F0FE1F4A137843F0080313701E4C47
:4003800061232370FFF7EAFE8123237001221B4B1A70FFF79BFE0E2229461948FFF7DAFE38BD00BFE84600401C060000A40000488358004004040044040404C4D80601401B
:4003C00004040444A043004000510040B8110048C0510040C4110048F2510040CC11004810510040D811004822510040E011004832510040224300400048004004000840D8
:40040000B043004008B500F0C7F803680C2B00D1FEE7FEE708B5104E104D16E029686B68AC68002204E051F8040B43F8040B0432A242F8D1E868002203E0002143F8041B9F
:4004400004328242F9D11035013E002EE6D100F0A9F8FFF717FEFEE7010000009006000008B5104A104B1A60104A136843F40073136000230AE0032B03D80D4A52F823106F
:4004800000E00C490C4A42F8231001332F2BF2D90A4B1A780A4B1A70074A0A4B1A60FFF7E9FE08BD0004FA050CED00E014ED00E000000000050400000080FF1FBC7600408D
:4004C000C080FF1F08ED00E0054A137843F0020313701032137843F002031370704700BFA24300407222074B1A702022FF3B1A700622613B1A70472210331A7000224D3375
:400500001A7070478B65004010B500F03DF804460A4A137843F020031370FF3A137843F010031370043A137843F01003137000F015F8204600F02CF810BD00BF9B650040FC
:4005400008B5054B1B7823B9FFF7CCFF0122024B1A70FFF7D9FF08BD4C81FF1F054A137843F0100313701032137843F010031370704700BFA24300400230800803D000BFA6
:4005800001380046FCD17047EFF3108072B6704780F31088704700BF014B1868704700BF2C81FF1F0E4B70B51E460E4C0025E41AA410A54204D056F8253098470135F8E7F4
:4005C00000F054F8084B094C1E46E41AA4100025A54204D056F8253098470135F8E770BD7806000078060000780600008006000010B5431E0A44914204D011F8014B03F8F2
:40060000014FF8E710BD03460244934202D003F8011BFAE7704700000000000040510040300000000140001000140140800200170140000180180140800300400140000A70
:40064000004C0140000200500140200060520040A4100048060080160140AC1000488000001801402C11004880004300F8B500BFF8BC08BC9E4670474D0000006104000019
:40068000F8B500BFF8BC08BC9E46704729000000A0060000C880FF1F68000000200000000000000000000000000000000000000000000000000000000000000000000000FE
:4006C000000000006A06000000000000000000000000000000000000000000000000000000000000000000000000000000000000000000000000000000000000000000008A
:4007000000000000CC80FF1F00000000000000000000000000000000000000000000000000000000000000000000000000000000000000000000000000000000000000004F
:400740000000000000000000000000000000000000000000000000000000000000000000000000000000000000000000000000000000000000000000000000000000000079
:400780000000000000000000000000000000000000000000000000000000000000000000000000000000000000000000000000000000000000000000000000000000000039
:4007C00000000000000000000000000000000000000000000000000000000000000000000000000000000000000000000000000000000000000000000000000000000000F9
:4008000000000000000000000000000000000000000000000000000000000000000000000000000000000000000000000000000000000000000000000000000000000000B8
:020000040003F7
:0200000480007A
:400000000452004009640040056500406E0001403101014049020140410301406D04014044050140630601404A0701405B0801404B090140660A0140480B0140610C0140FC
:400040004A0D0140650E0140350F01406A140140481501402A160140491701402918014052190140691A01404B1B0140074001400F410140044201400643014002440140E6
:400080000B45014009460140024701400B4801401B490140064C0140094D01400A500140025101400810093018221920820F830F876F880F896F8A0F8C388D0F8F0D850D70
:4000C000860D870F890D8B720003020C034E05020710080309040A0C0B110C050D080E0A0F11100F110E13201405153E160A1A1F261F2B4E2C1F3130320F3340350E36103F
:4001000037013E403F4040244103420549FF4AFF4BFF4F0150185283580459045A045B045C225D225F016040624064406540668068806A806C806E80800181038202831027
:40014000870F8A0F8C078E10910A961897099A0F9F1CA204A402A601A70FAB07AC0FAD0FAE20B11FB21FB420BA08BB02C034C101C205C5ECC602C807C9FFCAFFCBFFCD83CE
:40018000CE03CF01D018D804D904DA04DC22DD02DF01E040E240E440E540E680E880EA80EC80EE800345060A074008010A140E100F04114413041540170519401A201B4003
:4001C0001E141F0420142242230C27402B042D442F0431083202374538163A803E0E40044108428044014682470849404D0A4F8056806B057001C0DBC26EC4B5CA74CCD33A
:40020000CECFD0D7D218010A0314061C09060A0F0B180D0A0F14111F120F15061718191E1E071F1F200F240326102A092B1F2C0A3101331E341F38803A203E403F015283D8
:4002400054035604580459045B045C225D205F05820F840F85BB8620874489CC8B1291CC921893219401960299809A0F9B1F9D77A407A610A802AA01AD08AE04AFF1B01F8B
:40028000B1F0B30FB420BA02D403D604D804D904DB04DC12DD20DF0502300340040405200A440B200E800F021010119014301550170219201A441B011C041E0A1F102201A9
:4002C0002310244027202A402D20320133903422364437423B143D503F02590A5AA05C805D045F21638067806DD0750178017C2083408740880189088E0192A0990A9C01BC
:40030000A508A940AB04C06CC29EC4F7CA28CCFDCEB6D6FFD881DE21E6020480057F0610091A0B250C760F8010CC110C1210134314BA1640177018CC19451A201B0A217706
:4003400026F02D132E012F2C300E320133F034F0350F380240534101420449FF4AFF4BFF4F015018580459045A045C115D025F016040624064406540668068806A806C8047
:400380006E80824E840886118C028E10910193069404950196119702980E99029A209B01A501A64EA70AAC3EB00EB240B304B430B503B601B708BB20BE40C056C101C204DB
:4003C000C5ECC620C80BC9FFCAFFCBFFCD83CE03CF01D018D804D904DA04DB04DC12DD02DF01E040E240E440E540E680E880EA80EC80EE800004030205810620088209084F
:400400000A050E2811801220161219121A041B0A1EA922042304262827022A402B802F10320533103628370239803B14404042A2468249804D844F21562057105D805E8058
:400440006C01800681149040920293109504970599019A129C809E409F10A640A780AC02AE20B420B602C0B5C26EC4A5CA49CCE7CE0ED09BD238E204E404E6010F0C1104AA
:40048000140215011A0327032A042F0130023108320133013404350237043E013F444025410649FF4AFF4BFF4DA04F0150185280580459045A045B045C115D115F016040DE
:4004C000628064406540668068406A806C406D206E80800185FD87028808899E8B608D948F6091CF9330970F99309BC9A003A173A20CA403B002B204B408B601B7FFB88227
:40050000BE50BF40C061C103C542C6C3C70EC81FC9FFCAFFCBFFCDAFCE07CF01D018D40FD804D904DA04DB04DC01DD11DF05E040E280E440E540E680E840EA80EC40ED2015
:40054000EE80001003800C200E2010B01408181019021A051B401D011E201F102140264A27682B802E802F20320533143602370838803A403B143C80420143044720486029
:400580004A084D104E044F8050805214581059815A045D805E80621476807B808C089006920A93149580972099149E409F10A220A302A548A780B102B308B620C00AC26055
:4005C000C44CCA51CCC7CE1ED02AD234D60FD806DE01E048EA0400010406080612081A021C04250129012D01320834013501360638803E504020410649FF4AFF4BFF4DA016
:400600004F0450185401580459045A045B045C415D435F01604062C06440654066C068C06AC06CC06EC0800881018B0C8C039003920C98019908A303AF08B002B102B208A3
:40064000B308B401B504B604B701B822BE14BF44C020C106C5D1C702C813C9FFCAFFCBFFCDAFCE0FCF04D018D280D40FD804D904DA04DB04DC11DD13DF05E040E2C0E4408E
:40068000E540E6C0E8C0EAC0ECC0EEC00001020304280502064008200B800D020E020F08188119281B101C241D80201021412210232027042A812F2A321039023B10400239
:4006C00041404310471049014A284E08520C580259085A505C445D025E20612472807820848091049240935094809604970498209B109C019F01A102A305A4C8A590A64065
:40070000A901B021B148B210B310B520C079C2DACA79CC04CE05D024D224D6FFD806DE04E8B0007F0144030804A30540065C0710089609440A680B080F031102131D140EFE
:4007400016F0178018FE19031A011D1C2320255C29102A012B402CC52E3A313C32FF33C0350237013E043F505280540F5604580459045B045C105D105F0181C083108494CD
:4007800085B086608740883089028AC98BF18C9E8D018E608F069101920F93029473957098FD99809A029B10A4CFA501A630A70AA9C0AB20B104B303B5F0B6FFB708BB0826
:4007C000BE40C001C740C9FFCA07CBFFCC40CD20CEF0CF05D008D280D804D904DA04DB04DC10DD34DF01E040E1A8E240E3200006012005200602072009040A040C100E2416
:400800000F40114013101620170419041F8022512350241C254426022724281029202B802E202F10314432213528360238943A023C103D803E0645804D044F085701590855
:400840005AA05B01610171027740800481548202830189018A409240950197059B109C019E409F40A220A4C8A640C0EEC276C423CA67CCEFCEFFD010D60FD801EA4000076F
:400880000208061708010A020E18122016401A201C171E801F012204240226012A172E403040322033013480361F3A803E0540614104420549FF4AFF4BFF4F0150185418D9
:4008C000580459045A045B045C325D425F016040624064406540668068806A806C806E808005820A861F8A1F8C058E0A8F01900F98039A0CA01FA803AA0CB20FB501B61083
:40090000BE40C064C105C201C5ECC720C823C9FFCAFFCBFFCD83CE03CF01D018D403D604D804D904DA04DB04DC12DD22DF05E040E240E440E540E680E880EA80EC80EE80C0
:4009400000060160020403010404054006400704081009200B800C880E800F04108011101411160417011A111B401C061D401E021F05200822202710374038403CC0410247
:400980004201464149254B804D204F80500151025201584059055A105F016340670A79017D017F408740915092409406984099209B049E41A120A4C4A601B010C0FFC2FA48
:4009C000C4FACC10CE08D099D23CD68FD831DE01E010E620003E030104010736080E0A200B120D140E01124E172618021A101B381C041D361E10224E23012B362C082D068B
:400A00002E102F08300132303301340E353E36403B203E013F044040410349FF4AFF4BFF4DA04F0450185283580459045A045B045C225D235F01604062C06440654066C051
:400A400068C06AC06CC06EC083018E069E0CA101A602AE01B001B204B402B608B701BE10C040C103C5D0C620C710C82AC9FFCAFFCBFFCDAFCE0FCF04D018D280D405D80430
:400A8000D904DA04DB04DC33DD33DF01E040E2C0E440E540E6C0E8C0EAC0ECC0EEC0008802400308044009020A050F02108012011620174019201A451B881C601E081F4090
:400AC00021202204264029202A402B802F4030803124380639503F02404042A046A04F01562057015E885F0169506B047102774088408A048D048E01C08FC28BC4A9CA8D7B
:400B0000CC0ECE8FD0C3D6D0060108400A800B090E02108112401302141919011C401EA020192415270428402A802C0C30C031013220330434033508361C370238803A026A
:400B40004050410449FF4AFF4BFF4DA04F045018580459045A045C115D015F01604062C06440654066C068C06AC06CC06EC0820589018B0A8C018E049202931499029B01C7
:400B80009D019F02A501A702AB10AF04B004B110B201B303B402B504B708BB08BE05BF10C050C101C5D0C610C720C82AC9FFCAFFCBFFCDAFCE0FCF04D018D405D804D904C1
:400BC000DA04DB04DC11DD11DF01E040E2C0E440E540E6C0E8C0EAC0ECC0EEC001800318074109800A400B100E80104012091304188019241A401BA81C801E201F102040E3
:400C0000218022182640275829042A012B802E202F123211364237103A103E10430246024A024B404D014F40563257025C405D015F086F01844086108A0192109354948053
:400C40009640984099809D209F10A7A0A908AB80AC40AF10B108C097C21DC40FCA72CCB5CE24D011D218D6D0E020EC80000102021104160417031B0E2A032F0130013108E7
:400C8000320433023402350137043E113F104020410549FF4AFF4BFF4DA04F0450185405580459045A045B045C115D115F01604062C06440654066C068C06AC06CC06EC074
:400CC00001200390040208400A420F201314172019801C801E101F102108225023402641272829162F0131083220334234043611380439103A804008440C4A124B014E0216
:400D000052025301580159085AA05E805F0960807280840187048F1090069110920293149480980499169B409C809F10A220A302A508A7A0AC04AD40B080C01EC229C4461E
:400D4000CA17CCEFCE0ED024D218D6DFD801E010EA28860391019B01A606AA01B002B401B604B701BE10C036C105C54EC6C3C720C82FC9FFCAFFCBFFCDAFCE07CF01D0183E
:400D8000D405D804D904DA04DB04DC33DD31DF01E040E280E440E540E680E840EA80EC40ED20EE800310055006220740088009800C200D480E400F1012241420151218807E
:400DC0001A0A1D901E502240251826402740280829102C202D102E022F0532213510360237443C023E684010440145804720484049244B404F6051205201534059015A8840
:400E0000804089088A028D408F0490109104934094689604978499219A049B349C019D049E419F01A220A311A448A530A651A72AAC10B612C0F4C2F0C476CAF0CCF5CEF07C
:400E4000D022D23CD60BE0010404050C060107110A010D1C0F02120313031510170C1808191424032509271028032D103001311F32063408351F38083E1140364102450C9D
:400E800046BE480D49FF4AFF4BFF4EF04F44500C580459045A045C445D045F0166C06A406B0283088402856186858796881489618A4A8B8E915C9383971C981F99609B8009
:400EC000A7A3A81FAC09AE72B020B10FB207B3F0B418B51AB6C0BB2ABE40C023C106C204C401C50EC70CC811C9FFCAFFCBFFCC62CDA0CEF0CF41D00CD602D711D804D9045F
:400F0000DA04DB04DC44DD44DF01E640E702E910EA30EB10ED10EE10EF12002801040514060809210E08112815101602184019081A081D941F05212224BC251D2601290883
:400F40002B012D04310A32203508361138843D283F02401444884580470448144A104F14526054085E106D106E086F2A742075407620860488218A029104921093109468DC
:400F8000970E98889B049C209D409E68A301A429A611A72AB101B20CB301C066C24AC4C6CA4ACCE7CEEAD0F6D224D620E408ECA030103302360837103B40CCF0CE1001207C
:400FC00008088208874297409C189F10A608A702A808C040C210E230E640EC209C109F10AD20EC4086408F049C10AB10E010EA207C10DE010C010F0888018C109410980435
:40100000B004C205E008E604EC01062046408A209804B704C004D001E601EA0298049E40064027088C1096049E40A704AE04B010C020C820E840012004100A040F08518026
:4010400056105801640884098920941096049A10A180A704AD80AE10B308C0C0C2C0D460D640D880E240E610EA40EE4062026404820298049E40D8031040740184018840EA
:40108000B240C408DE04E201EC01001E08060A060C1A0E1E101A11011A021C1A1D0100FF0103000080800000400000007F000000960C683000020101000000400E1CF0002C
:4010C000003C000000140028A3035C0000000003FE30010CC5283A14000000000040003C0002FF0100000000000040502005000000D1002023FFFFFF00AF0F04180080005F
:401100000F00040004040404101100014000C0004040C000C000C000C000C000000000000000000000000000000000005C2123000C40000073180C00081900E21FFF600026
:401140007F00006604E70018001963E4021000000108000003600000000000012C1F10000F604C800080220A00000400260500000000000000FFFFFF00A000011800000081
:401180000000000004040400440100014000800040408000400080004020800000000000000000000000000000000000010014E1E000000000000000800040808000800067
:4011C000000000000220200000000000C00000FB3B0030000000000000B6B20000004000CC333300330000000700180100000000000000000000000000000000000000005A
:4012000000000000000000000000000000000000000000000000000000000000000000000000000000000000000000000000000000000000000000000000000000000000AE
:40124000000000000000000000000000000000000000000000000000000000000000000000000000000000000000000000000000000000000000000000000000000000006E
:40128000000000000000000000000000000000000000000000000000000000000000000000000000000000000000000000000000000000000000000000000000000000002E
:4012C00000000000000000000000000000000000000000000000000000000000000000000000000000000000000000000000000000000000000000000000000000000000EE
:0200000490006A
:0400000000004005B7
:0200000490105A
:04000000BC90ACAF55
:0200000490303A
:02000000AE63ED
:0200000490402A
:4000000000000000000000000000000000000000000000000000000000000000000000000000000000000000000000000000000000000000000000000000000000000000C0
:400040000000000000000000000000000000000000000000000000000000000000000000000000000000000000000000000000000000000000000000000000000000000080
:400080000000000000000000000000000000000000000000000000000000000000000000000000000000000000000000000000000000000000000000000000000000000040
:4000C0000000000000000000000000000000000000000000000000000000000000000000000000000000000000000000000000000000000000000000000000000000000000
:0200000490501A
:0C00000000012E16106900012E1DBECC60
:00000001FF