:400000000080002011000000DD070000DD07000008B5044B1A6803F53F5302331A6000F0FDFB00BFFA46004010B5054C237833B9044B13B10448AFF300800123237010BDB7
:400040004881FF1F000000009C1D0000084B10B51BB108490848AFF300800848036803B910BD074B002BFBD0BDE81040184700BF000000004C81FF1F9C1D0000C880FF1F90
:4000800000000000002300E00133042BFCDD7047B8B110B50C4C00220C49204600F0B2F800222146204600F0D5F801220849204600F0A8F800220749204600F0CBF800208C
:4000C00010BD0020704700BF00004842000034430000B4420000C84210B5044600F018F9A042FBD1012010BD30B591B062B600F0EFFB00F0DDFC06AC224D0FCD0FC40FCD63
:400100000FC495E8030044F8040B24F8021B090C217006A800F0E6FC01AC1B4D0FCD0FC42B68236001A8FFF7ADFF0546002410E055F82420154B43F82420154906A801F0D1
:4001400009FA06A800F0CEFC4FF47A7000F0EAFC0134042CECDD0DE00E4B1868FFF798FF0D4C6269094B53F82200FFF7B5FF636901336361084B5B69042BEDDD002011B04C
:4001800030BD00BFC41D0000A01D00002482FF1FB41D00003882FF1F6481FF1F38B50D46094900F0B1FF094901F062F80446E8B200F0C8FD204601F06DF980B200F038FD09
:4001C00000F088FD38BD00BF00FF7F470000C84238B50D46094900F097FF094901F048F80446E8B200F0A8FD204601F053F980B200F0CAFD00F01AFE38BD00BF00FF7F47E6
:400200000000C84270B505460E461446002000F0DFFC002000F0B2FCE1432846FFF7BEFF21462846FFF7D4FF00F0BCFC00F018FF074B196801F01CF820F00040314601F0CB
:4002400015F90028E8D000F0DFFC00F089FD70BDCC80FF1FF8B505460F461446002000F08DFC002000F0B4FC21462548FFF796FF21462448FFF7ACFF07E021462048FFF739
:400280008DFF21461F48FFF7A3FF00F08BFC00F0E7FE06461C491D4B186800F035FF0146304601F0CFF80028E7D100F07BFC00F0D7FE294600F028FF064600F049FC00F0CB
:4002C000CFFE0146304600F0D3FF2146FFF780FF21462846FFF762FF00F064FC00F0C0FE0A4B196800F0C4FF20F00040394601F0BDF80028D9D000F087FC00F031FDF8BD97
:40030000CDCCEE410000F0410000A040CC80FF1FF8B5554E00243460544F3C60544D2C60204600F0E5FC204600F0FAFC204600F0EBFC0A2000F0F6FB00F024FB012000F01B
:40034000EFFC282000F0EEFB00F02EFB204600F033FB00F049FB3060204600F0E1FC00F0FBFA0A2000F0DEFB00F00CFB012000F0CBFC282000F0D6FB00F016FB204600F0D6
:400380001BFB00F031FB3860204600F0BDFC00F0E3FA0A2000F0C6FB00F0F4FA012000F0A7FC282000F0BEFB00F0FEFA204600F003FB00F019FB2860204600F099FC00F096
:4003C000CBFAC82000F0AEFB33682A68991AB1F57A6F10DD3968591AB1F57A6F0BDD012000F09EFC4FF47A7000F09CFB204600F097FC0120F8BD1D490968C81AB0F57A6F6B
:400400000FDD881AB0F57A6F0BDD012000F07CFC4FF4FA7000F086FB002000F075FC0220F8BDD31AB3F57A6F0FDD521AB2F57A6F0BDD012000F05CFC4FF4FA7000F072FBF8
:40044000002000F055FC0320F8BD002000F068FC002000F059FC002000F04AFC4FF4FA7000F060FB0020F8BD4C82FF1F4882FF1F4482FF1FFEE700BFF0B40022174611E0D7
:4004800050F82760F3B226F0FF0608E001EB420511F812406D78A5550132013BDBB2002BF4D10137282FEBD9F0BC7047174B1B78DBB203F00701164A11701B09013213707E
:4004C0000222144B1A700422A3F5A4531B3B1A70402203F686531A70142203F6D3031A7020230D4A137080220C490A7010208C3108703F310B7001310B702C310A70084A59
:4005000013704422074B1A70704700BFCF0100496E58004042580040035A0040085A0040045B00407658004008B50A46002101F008F808BD08B500F0F9FF08BD38B500243C
:40054000364B1C80502202331A70012202331A801823334A1370172232490A8002310B7002310A80304A13703321023211800232137004222D492E48FFF7DCFF02222D4B0B
:400580001A7008224FF040231A70032103F500731970294B1B78DBB228490B70284B1A8041F25122023B1A8019250CE0254B1B7803F0010343EA440404F003044FF4F07002
:4005C00000F062FC013D0DB1032CEFD115B90320FFF750FF1C4B4FF480721A8007221A7000221A490A704820023108701A700222033B1A7004220A331A70154A137843F011
:400600001F031370013A137843F001031370013A137843F08003137038BD00BF8040004086400040884000408E400040E4120048004100400043004008010049A14600400B
:4006400022420040254200400440004006400040A243004038B572B6454A137843F00403137000240CE0434D630019194A0011462A44084691882858FFF756FF0134E4B2D3
:400680000A2CF0D900240CE03A48A20011194B000344B3F84C20996C586CFFF74BFF0134E4B2042CF0D934494FF09040FFF7E4FE0A24324B1C7040F20322373B1A80304BEE
:4006C000304A1360304902F56072116002F5207213602E4A2E4B1A602E4A137843F0020313701032137843F0020313702A4D2B7843F040032B70A2F58632513A137843F0EA
:4007000010031370224625492548FFF713FF224624492548FFF70EFF082224492448FFF709FF224623492448FFF704FF082223492348FFF7FFFE082222492348FFF7FAFE77
:40074000224A137843F008031370214C61232370FFF7F4FE8123237001221E4B1A70FFF7A5FE0E2229461C48FFF7E4FE38BD00BFE8460040EC1D0000A40000488358004062
:4007800004040444D802014004040484040404C4D81A014003500140A0430040A812004800510040B4120048C0510040C0120048F2510040C812004810510040D412004804
:4007C00022510040DC12004832510040224300400048004004000840B043004008B500F079FE03680C2B00D1FEE7FEE708B5094B1A681044084BC31A802B02DC054B1860D8
:4008000005E000F067FE0C2303604FF0FF32104608BD00BFD080FF1F5882FF1F08B5104E104D16E029686B68AC68002204E051F8040B43F8040B0432A242F8D1E868002259
:4008400003E0002143F8041B04328242F9D11035013E002EE6D100F043FEFFF745FCFEE701000000BC1E000008B5104A104B1A60104A136843F40073136000230AE0032BAC
:4008800003D80D4A52F8231000E00C490C4A42F8231001332F2BF2D90A4B1A780A4B1A70074A0A4B1A60FFF7D5FE08BD0004FA050CED00E014ED00E000000000DD07000023
:4008C0000080FF1FBC760040C080FF1F08ED00E0054A137843F0020313701032137843F002031370704700BFA2430040044B1B7813F0200F03D1034B1A78034B5A70704766
:4009000029580040825B00408481FF1F0E4B1B7813F0200F16D10D4B1B7813F0080F0DD00A4B1A7802F0F7021A70094A5178094A11701A7842F008021A707047044B5A7853
:40094000044B1A70704700BF29580040975A00408481FF1F825B004008B5084B1B7813F0040F03D00122064B1A7002E00022044B1A7000F0A7FAFFF7B9FF08BDA843004060
:400980008481FF1F08B5FFF7C1FF054B1B78012B05D100F089FA034B187800F0A1FA08BD8481FF1F825B0040024A137843F0010313707047004E0040094B1B7C13F0FF0F09
:4009C00003D0074B5B7CDBB203E0064B1B7803F00103012B01D00028EED01846704700BF8881FF1F014E0040154B1B7803F00303012B07D8134B1888023B1B889BB243EAF4
:400A0000004013E0022B0AD10E4B1888023B1B7843EA00430C4A107843EA002006E00B4B188883B2074A108843EA0040084B1B7C13F0FF0F02D00022054B5A74704700BF2D
:400A4000144E0040124E0040114E0040104E00408881FF1F7222074B1A702022FF3B1A7006225D3B1A70472210331A7000224F331A7070478A65004010B500F00DFA0446C0
:400A80000A4A137843F020031370FF3A137843F0100313700232137843F01003137000F033F8204600F0FCF910BD00BF9A65004008B5054B1B7823B9FFF7CCFF0122024B8B
:400AC0001A70FFF7D9FF08BD9C81FF1F034B1B7813F0040FFAD1024B187070476D6400404A64004038B5074B1B782BB938BDFFF7EDFF0134A4B201E005460024285D00283C
:400B0000F5D138BD9C81FF1F054A137843F0100313701032137843F010031370704700BFA243004010B5044605E0084B186800F0ABF9A4F50044B4F5004FF6D8034B5868DF
:400B400000FB04F000F0A0F910BD00BFD480FF1F10B50224064B1C6000F07CF9A0F5004000B2044B1B68044A1460184410BD00BF80E100E0A081FF1F00E100E038B5054666
:400B80000224054B1C604FF4004000F05DF9034B1D60034B1C6038BD80E100E0A081FF1F00E100E010B50124064B1C6000F062F9A0F5004000B2044B1B68044A1460184436
:400BC00010BD00BF80E100E0A481FF1F00E100E038B505460124054B1C604FF4004000F043F9034B1D60034B1C6038BD80E100E0A481FF1F00E100E0024A137843F08003F0
:400C00001370704777650040024A137803F07F031370704777650040014B1880704700BF0C6A0040014B1880704700BF8C6A0040014B1880704700BF4C6A0040014B1870F8
:400C4000704700BF87650040014B1878704700BF67650040014B188880B27047AC6A004008B501E0FFF7F6FFFFF7EEFF10F0100FF8D108BD10B5154A137803F0C00343F098
:400C8000090313701F32137843F001031370104C237843F0010323704FF6FF70FFF7BCFF4FF6FF70FFF7BEFF7F20FFF7C1FF0020FFF7C4FF00F0F0F8237843F01003237008
:400CC00000F0EEF8FFF7CCFF10BD00BF776500409765004008B5054B1B7823B9FFF7CAFF0122024B1A70FFF787FF08BDA881FF1F044A137803F07F03C001C0B21843107060
:400D0000704700BF00510040044A137803F0BF03800100F0400018431070704700510040044A137803F0DF03400100F0200018431070704700510040014B1870704700BFDE
:400D40007B650040014B1870704700BF75650040024A137843F080031370704774650040024A137803F07F031370704774650040014B1880704700BF086A0040014B188080
:400D8000704700BF886A0040014B1880704700BF486A0040014B1870704700BF84650040014B1878704700BF64650040014B188880B27047A86A004008B501E0FFF7F6FFC1
:400DC000FFF7EEFF10F0100FF8D108BD10B5154A137803F0C00343F009031370124C237843F0010323702132137843F0010313704FF6FF70FFF7BCFF4FF6FF70FFF7BEFF15
:400E00007F20FFF7C1FF0020FFF7C4FF00F044F8237843F01003237000F042F8FFF7CCFF10BD00BF746500409465004008B5054B1B7823B9FFF7CAFF0122024B1A70FFF7F0
:400E400087FF08BDA981FF1F014B1880704700BF10680040024B1B78024B188880B270470864004090680040014B1880704700BF08680040024B1B78024B188880B2704773
:400E800004640040886800400230800803D000BF01380046FCD17047EFF3108072B6704780F31088704700BF054A137843F0040313701032137843F004031370704700BFA2
:400EC000A8430040054A137803F0FB0313701032137803F0FB031370704700BFA8430040014B1870704700BF825B004080F0004002E000BF81F0004142001FBF5FEA410380
:400F000092EA030F7FEA226C7FEA236C6AD04FEA1262D2EB1363C1BFD218414048404140B8BF5B42192B88BF704710F0004F40F4000020F07F4018BF404211F0004F41F4A0
:400F4000000121F07F4118BF494292EA030F3FD0A2F1010241FA03FC10EB0C00C3F1200301FA03F100F0004302D5494260EB4000B0F5000F13D3B0F1807F06D340084FEA4F
:400F8000310102F10102FE2A51D2B1F1004F40EBC25008BF20F0010040EA03007047490040EB000010F4000FA2F10102EDD1B0FA80FCACF1080CB2EB0C0200FA0CF0AABF18
:400FC00000EBC25052421843BCBFD0401843704792F0000F81F4000106BF80F400000132013BB5E74FEA41037FEA226C18BF7FEA236C21D092EA030F04D092F0000F08BF2F
:401000000846704790EA010F1CBF0020704712F07F4F04D1400028BF40F00040704712F100723CBF00F50000704700F0004343F0FE4040F4000070477FEA226216BF0846C1
:401040007FEA23630146420206BF5FEA412390EA010F40F4800070474FF0000304E000BF10F0004348BF40425FEA000C08BF704743F0964301464FF000001CE050EA010240
:4010800008BF70474FF000030AE000BF50EA010208BF704711F0004302D5404261EB41015FEA010C02BF84460146002043F0B64308BFA3F18053A3F50003BCFA8CF2083A2E
:4010C000A3EBC25310DB01FA02FC634400FA02FCC2F12002BCF1004F20FA02F243EB020008BF20F00100704702F1200201FA02FCC2F1200250EA4C0021FA02F243EB020084
:4011000008BF20EADC7070474FF0FF0C1CEAD0521EBF1CEAD15392EA0C0F93EA0C0F6FD01A4480EA010C400218BF5FEA41211ED04FF0006343EA501043EA5111A0FB0131E2
:401140000CF00040B1F5000F3EBF490041EAD3715B0040EA010062F17F02FD2A1DD8B3F1004F40EBC25008BF20F00100704790F0000F0CF0004C08BF49024CEA502040EADB
:4011800051207F3AC2BFD2F1FF0340EAC250704740F400004FF00003013A5DDC12F1190FDCBF00F000407047C2F10002410021FA02F1C2F1200200FA02FC5FEA310040F1B9
:4011C000000053EA4C0308BF20EADC70704792F0000F00F0004C02BF400010F4000F013AF9D040EA0C0093F0000F01F0004C02BF490011F4000F013BF9D041EA0C018FE7D4
:401200000CEAD15392EA0C0F18BF93EA0C0F0AD030F0004C18BF31F0004CD8D180EA010000F00040704790F0000F17BF90F0004F084691F0000F91F0004F14D092EA0C0FAC
:4012400001D142020FD193EA0C0F03D14B0218BF084608D180EA010000F0004040F0FE4040F40000704740F0FE4040F4400070474FF0FF0C1CEAD0521EBF1CEAD15392EA3F
:401280000C0F93EA0C0F69D0A2EB030280EA010C49024FEA402037D04FF0805343EA111143EA10130CF000408B4238BF5B0042F17D024FF4000C8B4224BF5B1A40EA0C00E6
:4012C000B3EB510F24BFA3EB510340EA5C00B3EB910F24BFA3EB910340EA9C00B3EBD10F24BFA3EBD10340EADC001B0118BF5FEA1C1CE0D1FD2A3FF650AF8B4240EBC25049
:4013000008BF20F0010070470CF0004C4CEA50207F32C2BFD2F1FF0340EAC250704740F400004FF00003013A37E792F0000F00F0004C02BF400010F4000F013AF9D040EA68
:401340000C0093F0000F01F0004C02BF490011F4000F013BF9D041EA0C0195E70CEAD15392EA0C0F08D142027FF47DAF93EA0C0F7FF470AF084676E793EA0C0F04D14B02BF
:401380003FF44CAF08466EE730F0004C18BF31F0004CCAD130F000427FF45CAF31F000437FF43CAF5FE700BF4FF0FF3C06E000BF4FF0010C02E000BF4FF0010C4DF804CDFC
:4013C0004FEA40024FEA41037FEA226C18BF7FEA236C11D001B052EA530C18BF90EA010F58BFB2EB030088BFC81738BF6FEAE17018BF40F0010070477FEA226C02D15FEA51
:40140000402C05D17FEA236CE4D15FEA412CE1D05DF8040B704700BF844608466146FFE70FB5FFF7C9FF002848BF10F1000F0FBD4DF808EDFFF7F4FF0CBF012000205DF8C6
:4014400008FB00BF4DF808EDFFF7EAFF34BF012000205DF808FB00BF4DF808EDFFF7E0FF94BF012000205DF808FB00BF4DF808EDFFF7D2FF94BF012000205DF808FB00BFE0
:401480004DF808EDFFF7C8FF34BF012000205DF808FB00BF42000ED2B2F1FE4F0BD34FF09E03B3EB126209D44FEA002343F0004323FA02F070474FF00000704712F1610F2A
:4014C00001D1420202D14FF0FF3070474FF00000704700BF014B1868704700BF4481FF1F0E4B70B51E460E4C0025E41AA410A54204D056F8253098470135F8E700F0CCFCE7
:40150000084B094C1E46E41AA4100025A54204D056F8253098470135F8E770BDA41E0000A41E0000A41E0000AC1E000010B5431E0A44914204D011F8014B03F8014FF8E79F
:4015400010BD03460244934202D003F8011BFAE7704700000EB400B54FF402719CB0ADF814106FF00041049107914FF6FF711DAB02900690084853F8042BADF81610006808
:4015800002A9019300F064F8029B00221A701CB05DF804EB03B070474481FF1F2DE9F0478E6882469E420C46914698463ED88A8912F4906F3AD02568096902236F1A656955
:4015C00005EB450595FBF3F57B1C43449D4238BF1D4653050FD5294600F040FB064698B13A462169FFF7A2FFA38923F4906343F08003A38113E02A4600F08EFB064670B975
:401600002169504600F0DEFA0C23CAF80030A3894FF0FF3043F04003A381BDE8F08726613E44266046466561ED1BA560464528BF464649463246206800F0A8FAA368002019
:401640009B1BA36023681E442660BDE8F08700002DE9F04F9DB003938B8980461C060D4616460DD50B695BB9402100F0F7FA2860286118B90C23C8F80030CDE040236B61B6
:401680000023099320238DF82930DFF89CB130238DF82A3037463C4614F8013B1BB9B7EB060910D003E0252BF9D02746F3E74B46324629464046FFF771FF013000F0A78059
:4016C000099B4B4409933B78002B00F0A08000234FF0FF3204930793059206938DF853301A930126052221784E4800F041FA671C049B38B14B4A3C46801A06FA00F01843D5
:401700000490EFE7D90644BF20228DF853201A0744BF2B228DF8532022782A2A03D0079A00210A200BE0039A111D12680391002A10DA524243F00200079204900BE02746E7
:401740003B780134303B092B03D800FB02320121F5E701B107923B782E2B1ED17B782A2B0AD1039B02371A1D1B680392002BB8BF4FF0FF33059310E0002319460593781C02
:401780000A2407463A780130303A092A03D804FB01210123F5E703B1059103223978224800F0E6F940B14023CBEB000003FA00F0049B013718430490397806221B487E1C46
:4017C0008DF8281000F0D4F988B1194B33B9039B073323F007030833039314E003AB00932A46144B04A94046AFF3008007E003AB00932A460F4B04A9404600F093F8B0F186
:40180000FF3F824603D0099B5344099342E7AB895B0601D4099801E04FF0FF301DB0BDE8F08F00BF641E00006A1E00006E1E0000000000009D1500002DE9F04791461F46F4
:401840000A698B6806469342B8BF1346C9F8003091F843200C46DDF8208012B10133C9F800302368990642BFD9F800300233C9F80030256815F0060510D104F1190A07E0B6
:401880000123524639463046C04701301AD00135E368D9F800209B1A9D42F1DB94F843302268003318BF012392060FD5E118302081F843005A1C94F845102244023382F8DF
:4018C000431003E04FF0FF30BDE8F08704F1430239463046C0470130F4D02268D9F80050E36802F00602042A08BF5D1B2269A3680CBF25EAE57500259342C4BF9B1AED189F
:401900004FF000091A344D4509D00123224639463046C0470130D5D009F10109F3E70020BDE8F0872DE9F04317460A7E85B06E2A984606460C460C9B01F1430E00F0AE80AF
:4019400011D8632A22D009D8002A00F0BB80582A40F0CA8081F84520834955E0642A1ED0692A1CD0C0E0732A00F0B08009D86F2A2ED0702A40F0B8800A6842F020020A60EC
:401980003EE0752A24D0782A3AD0ADE01A6801F14205111D1960136884F84230A8E021681A6811F0800F02D0111D196008E011F0400F02F10401196002D0B2F9003000E0A0
:4019C0001368002B3CDA2D225B4284F8432037E021681A6811F0800F02D0111D196007E011F0400F02F10401196001D0138800E01368227E5C496F2A14BF0A2208221BE0C4
:401A000078225A4984F845202268186812F0800F00F104051D6003D1550601D5038800E00368D00744BF42F0200222601BB9226822F0200222601022002084F8430001E0E5
:401A400049490A226568002DA56008DB206820F0040020602BB9002D7DD175460CE0002B79D07546B3FBF2F002FB1033CB5C05F8013D03460028F5D1082A0BD12368DA0792
:401A800008D5236962689A42DEBF302305F8013C05F1FF35C5EB0E0323612EE008681A6810F0800F496903D0101D1860136808E010F0400F02F104001860136801D01980BF
:401AC00000E0196000232361754616E01A68111D1960156800216268284600F049F808B1401B6060636804E004F1420584F8422001232361002384F84330CDF800803B46E8
:401B000003AA21463046FFF797FE013002D14FF0FF3026E023692A4639463046C0470130F5D023689B0710D5002504F1190907E001234A4639463046C0470130E7D0013527
:401B4000E368039A9B1A9D42F2DBE068039B9842B8BF184605E00B7804F1420584F842308AE705B0BDE8F083751E0000861E000010B5C9B202449042034605D01C78013045
:401B80008C42F8D1184610BD002010BD884210B501EB020301D8421E0BE09842FBD28118D21AD34204D013F8014D01F8014DF8E710BD994204D011F8014B02F8014FF8E744
:401BC00010BD000038B50546002944D051F8043C0C1F002BB8BFE41800F0D4F81E4A1368114613B96360146030E0A3420DD92268A018834201BF18685B6812182260636004
:401C00000C6023E0A24203D813465A68002AF9D118681918A1420BD12168014458188242196013D110685268014419605A600DE002D90C232B6009E021686018824201BFFE
:401C4000106852680918216062605C602846BDE8384000F098B838BDB081FF1F70B5CD1C25F0030508350C2D38BF0C25002D064601DBA94202D90C23336046E000F082F8CD
:401C8000234B1C681A462146A1B10B685B1B0ED40B2B03D90B60CC18CD501EE08C420BBF63684B681360636018BF0C4615E00C464968E9E7174C23681BB9304600F052F823
:401CC00020602946304600F04DF8431C18D0C41C24F00304A0420DD12560304600F053F804F10B00231D20F00700C31A0ED05A42E25070BD211A304600F034F80130EBD14B
:401D00000C233360304600F03EF8002070BD00BFB081FF1FAC81FF1FF8B5074615460E4621B91146BDE8F840FFF798BF1AB9FFF749FF2846F8BD00F027F885420ED929463B
:401D40003846FFF78BFF044650B131462A46FFF7EDFB31463846FFF735FF01E03046F8BD2046F8BD38B5064C0023054608462360FEF73CFD431C02D1236803B12B6038BD72
:401D80005082FF1F7047704751F8040C0028BEBF091851F8043CC018043870470000000001000000020000000300000005000000060000005468652074696E6720676F2038
:401DC00025640A003220706C757320322069732034202D2031207468617473203320717569636B206D616666730A0000405100403000000001408000000101408001000367
:401E000001408009000D01400001800E0140800100140140800400190140000300400140000A004C0140000200500140200000008000014028100048800080020140A810FC
:401E400000488000800C0140281100488000000E0140A81100488000801801402812004880004300232D302B2000686C4C00656667454647003031323334353637383941A1
:401E8000424344454600303132333435363738396162636465660000F8B500BFF8BC08BC9E4670474D00000069080000F8B500BFF8BC08BC9E46704729000000D01E000099
:401EC000C880FF1F80000000100100000000000000000000000091435882FF1F0000E02EC05D00001800000000366E01000000000000000000000000000000000000000037
:401F0000000000000000000000000000621E000000000000000000000000000000000000000000000000000000000000000000000000000000000000000000000000000021
:401F4000000000000000000000000000E480FF1F000000000000000000000000000000000000000000000000000000000000000000000000000000000000000000000000DF
:401F80000000000000000000000000000000000000000000000000000000000000000000000000000000000000000000000000000000000000000000000000000000000021
:401FC00000000000000000000000000000000000000000000000000000000000000000000000000000000000000000000000000000000000000000000000000000000000E1
:4020000000000000000000000000000000000000000000000000000000000000000000000000000000000000000000000000000000000000000000000000000000000000A0
:402040000000000000000000000000000000000000000000000000000000000000000000000000000000000000000000000000000000000000000000000000000000000060
:020000040003F7
:0200000480007A
:40000000065200400A640040056500402A00014040010140250201404D0301406A04014043050140660601404C07014069080140510901406D0A0140480B0140350C014056
:40004000480D0140180E01403C0F0140691401404515014065160140421701403C18014050190140731A0140631B01400740014011410140054201400243014003440140CB
:400080000C45014008460140034701400B4801401B490140094C0140074D01400A50014002510140083009101821192260806440820F830F866F870D880D896F8A0F8B3823
:4000C0008D0F8E0F840D860F870D8A728B0F023D043D050106020A3D0C28100C124016701F03221C2A243002327C3401350237013A083E1040324101420649FF4AFF4BFFE1
:400100004F015018580459045A045C325D025F016040624064406540668068806A806C806E800142031404080542074408020A100C010D800F181110128015401650171014
:4001400019261A101B141D501E201F42200422402580268027042F6A308034023504375038043C023D54400241204202430C440145204602470449204D084F215520561019
:4001800057206C046D5074017640804081108584C0FFC2FCC4FACAF0CCF8CEF2D07ED224E00809010B02110113061501170A19021B013303350437083B08402141034205E4
:4001C00049FF4AFF4BFF4F0150185403560459045A045B045C105D225F056040624064406540668068806A806C806E80020103280A490B1010221280132019621A411B8031
:4002000021042290232025102712282829423022328C36043712392A3A803B103D2040204101420844204609472049054B404F4051015201588059055A205C405D085E20E1
:400240005F016380678078207B087D40808081608202834087408F1090409280930199089E02A210A480B312B710C007C20FC40FCA0FCCEFCE2FD077D218D6FFD881DE1488
:40028000E604EA01EC4004810612071F08C10A220B120C040EF0111412071477173818B71A401B1F2208230E2506272028C0291F2A142B40300F310132F0333E35403B087D
:4002C0003F014053410449FF4AFF4BFF4DA04F0150185283580459045A045B045C215D215F016040628064406540668068406A806C406D206E8083038403880D8F0C98146D
:400300009C189D0DA818AC03AD08AF04B002B102B201B304B41CB508B701B82ABE04BF54C053C104C54CC620C73EC83BC9FFCAFFCBFFCDAFCE07CF01D018D804D904DA04EB
:40034000DC11DD01DF01E040E280E440E540E680E840EA80EC40ED20EE8000400318051006200A440B200E0611021204160619061A401B081C801D381F1022182340242063
:400380002650274028282B802E4030223218374039283C803F024108424043014508470149404A024E024F06562A6802692072808102910892809520974098289B109E80C0
:4003C000A380A4A2A60CAC08AF20B020C067C2CEC4CACA17CC17CE96D0C3D218E404EA200303043406C008C40A300C500EA41001160318F41D011E08220128702CA42E5018
:4004000030023102320C34F0350136013E403F104050410249FF4AFF4BFF4DA04F0450185280540F580459045A045B045C115D135F05604062C06440654066C068C06AC0F6
:400440006CC06EC0840E86F088A38A5C8C968E688F0190C5923A9306947F98FE9A019B049F02AA01B0FFB101B304B502BE01BF04C040C102C5D0C621C80EC9FFCAFFCBFFB7
:40048000CDAFCE0FCF04D018D280D405D804D904DA04DB04DC30DD33DF01E040E2C0E440E540E6C0E8C0EAC0ECC0EEC000400120020403100440052006100710080E0A04FA
:4004C0000B200C080D080E440F021008140616801B011D481E4420082102220527483080312237403B403E0241224230452049014E015080512059015A885E925F0866086F
:400500006704734076807F109280932494409604980299809A2A9B109D409E04A250A480A604A810A981B120B402B504B601C0E7C2FEC4D2CC1DCE88D025D210D6FBD8608B
:40054000DE40EE01010102010550060207A40B030C080F0111C412041330170819341BC01DF41E08260229702DA42F5031F03201330C34083501360637023E503F10406279
:40058000410349FF4AFF4BFF4DA04F01501852805405580459045A045B045C135D315F016040628064406540668068406A806C406D206E809108950396029A079C01A10364
:4005C000A30CA901B001B104B308B402B501B604B702B9A0BF14C032C106C542C6C0C73EC83BC9FFCAFFCBFFCDAFCE07CF01D018D280D40FD804D904DA04DB04DC13DD113C
:40060000DF05E040E280E440E540E680E840EA80EC40ED20EE80048005180640070809080A010B080C800D02150818401A011B201C081D8821202285241927442A212B080A
:400640002E402F0831043201360837513C113E844120430445204708488049144C045225589059025A085C405E085F01622464106504728076407B08872088A594909541ED
:40068000964499029B099C289D049E329F70A104A209A581A680AB08B201B710C0B0C297C420CA35CCF3CEF0D066D224D6DFD806DE04E408E810EC80000C01020211041CB8
:4006C0000508060207040C200D0C0E031409161017031F0C20102410260C2814301F310133023420350837043E103F5440634101460C47EB483449FF4AFF4BFF4EF04F4436
:40070000500C540F5604580459045A045B045C145D145F0166C06A406B0284FD85968602876888948A608B018C308EC991A3935C949E9660990E9A0F9BF09C739DFE9F0184
:40074000A97FACCFADC5AE30AF3AB2FFB3FFBB02BE04BF04C023C105C204C401C50CC70EC811C9FFCAFFCBFFCC62CDA0CEF0CF41D00CD418D804D904DA04DB04DC40DD4406
:40078000DF01E640E702E910EA30EB10ED10EE10EF120049042006120A100E010F281098154018481F0821012254260B2C042E60310432803751388439023C103E0440011B
:4007C000414444204581472049104E024F0450085241550458065AA05D016340640867018004830489028A048C028F40902491889210930196449744981099109B099E6149
:400800009F50A084A501AC21B340C0EDC2E4C48ECA30CCBACE6BD0FAD214D68FD831E401EAA000FD020204730977109E11C0126013241707183019011AC91BF21DB71F4091
:4008400020CF22302584260F271028942A602B082DC12F1232FF350F37F038023E0540314104420649FF4AFF4BFF4F015018580459045A045C105D025F01604062406440A8
:400880006540668068806A806C806E80000A0240062007400A100E4410101284171919901A101B041E801F082008215122842404270929022A012B042E442F083090311078
:4008C0003759380839A83A043E20408041884481458849054A084E0851805304582059825A088A408C10900893019502970C98809C019D05A080A108A208A501AA02AB0228
:40090000B550B705C03CC254C47ECA75CCFCCE2ED0DBD224D60FE440E604EA048340874089048B029308971F9F30A31FA502A601A704A91FAD0EAF20B13EB301B540B601FD
:40094000BB02BF14D804D904DC22DF0100420114088009080A800B08101412011342142415241628184019901A201C021D401F40211825102608274028A029402B042E28BA
:400980002F4230113108325033443746384039103A093D023E103F044101488050045995620269506A106B02734078807B028620C00FC20FC42FCAFFCCDFCEEFD001D60F6A
:4009C000D801DE080302050807140C040D080E020F1010021205140215101604170819081B111C021E1422082608301031043201331834083501360637023A803B083E1000
:400A00004010410349FF4AFF4BFF4DA04F04501852805405580459045A045B045C115D115F01604062C06440654066C068C06AC06CC06EC0800883018A03920493089B027F
:400A40009E04A002A201AA08AB04B002B102B208B304B404B501B601B708BE41C040C103C5D0C620C710C82AC9FFCAFFCBFFCDAFCE0FCF04D018D804D904DA04DB04DC119B
:400A8000DD01DF01E040E2C0E440E540E6C0E8C0EAC0ECC0EEC001800510074009400A500C020F0110201280172119801A541D101E221F01204521082280230325602604EA
:400AC00027402F0831283622372038463D0140014220462047024D0254225620570159025A846F027001818085408610870189098B088E038F0192809D40A220A604A70365
:400B0000AB10B440C051C29DC45CCA20CCA6CE8BD0CAD60BE024E252E490E810EC10EE021002130117031B021F0C26032D082F043001310833043501360237023E403F1583
:400B40004030410549FF4AFF4BFF4DA04F045018540F5604580459045A045B045C115D115F01604062C06440654066C068C06AC06CC06EC0804082A0830184408681881820
:400B80008A048C908E429018910492029440968098169A08A61EA702A80EAF0CB0C0B108B220B301B41EB502B601B704BA02C030C105C5D1C720C823C9FFCAFFCBFFCDAF77
:400BC000CE0FCF04D018D280D405D804D904DA04DB04DC11DD11DF01E040E2C0E440E540E6C0E8C0EAC0ECC0EEC000440120038008020A140E8010041210162018401930F9
:400C00001A101B801E822004210A2248268027542B112F02310236AA380241084508470349014A224E02520259415B045C085D805E205F026440700181108350844088049F
:400C400092049440980E99809A309B019D20A004A210A605B204B301C00FC21EC426CA1ACCF1CE01D042D218D6FBD880E404006C020203D3040805820601090C0C6C0DC36A
:400C80000E0111DF14371541172019D31A0F1B0C2108228025042680291C2BC32C5B2D0F2E042FD0300F311C3270330F3480352037C038083B083E104030410149FF4AFFDC
:400CC0004BFF4DA04F045018580459045A045C415D035F01604062C06440654066C068C06AC06CC06EC0004002A00501071108800A880B100E24100A142015021740184135
:400D000019121A081D011E681F08214022882310242025012640272829162B012C042E8930023268350836013720380939903C823D043E2041094420450846014B0151010E
:400D400052015304680869106A807002790D7A40814094809549964497099B419C089D089E029F30A080A10CA201A401A503A604A708B210C0BDC26FC4B3CAFFCCEFCEFF35
:400D8000D053E020EC20011002030328053F0603093F0A040D040EF810281250152216FA171118281A501CF820182260247E2509271228182A603001313832063303347801
:400DC000368037043E4140624105420149FF4AFF4BFF4F01501856025711580459045A045B045C425D425F016040624064406540668068806A806C806E80803982C2840153
:400E0000870288E78A188C10943996C498089CFF9F02A286A301A601A818B098B101B21FB302B420B640B880BA0ABE10BF04C063C104C201C5ECC620C80BC9FFCAFFCBFFFF
:400E4000CD83CE03CF01D018D403D604D804D904DA04DB04DC14DD22DF05E040E240E440E540E680E880EA80EC80EE800041032804200509068208800A880B200C040D205A
:400E80000E22100812A0172A19241A401B881D511E202082210F23022480260429082C80310834083540360439963D0843E04501461047404A084BA04D024E084F04561056
:400EC000572059105D225E405F04674069946D807120722B73207C027D027F4083108540872189088A0490619288948095089605974098829B089C0C9D0C9EA89F10A0880C
:400F0000A104A2A9A441A502A701A802AA20AF40B484B602C0FFC2EFC47ECA82CC12CE4FD0DCD22CD6F4D880DE80E420E850EC10EE013382362839808740CCF0CE10E010D3
:400F4000018005080B8030108208870297809D80A628A782A940B580C060C210CC10E230EA809C10A780AD08B220EC109C10A78077407F08DE0500020C020F0883048B08E7
:400F80009F40A402A708A802C008C205E0040408450883409F40B001C004D001EA0187049008A508040825108208830887809C10A780C020C820E220E69001200410091026
:400FC0000E01500157105B08660889208A018C018D108F1094109A089B08A810AC10B404B510C0C0C2C0D4C0D640D880EC80EE405F0267088B0290089308A508D601D801F7
:40100000E00410408840A804B508C408E201EC08001E0101080E0A0E0C1A0D010E16101E1A021C1E00FF010F000078E01800601800027901000002047BE70010000105028B
:40104000180F60E02800500F00E08000008005007820800F284050008000780004E0031F00000080000010003201060000EC20000BFFFFFF008303011800830000000000C1
:4010800004040404222200014000400040408000800080008000800000000000000000000000000000000000004000007810000F3B03800C000005F00005020A1003080C8D
:4010C0000800100F0020C00000700500007F7800000F79F00005200A03000070040FF88000008000000010002403050000EC002023FFFFFF0083030118000000030004004A
:4011000004040404222200054000400040408000800080008000800000000000000000000000000000000000030044000A005443009C000300C1000E000000000000080078
:4011400000C10016000000085320040053000C002000451C0000000000C030200F0F401A080220A0000040053104060000EC020217FFFFFF008303011800000001000000C3
:4011800004040404444200014000400040408000800080008000800000000000000000000000000000000000000078E07800011C18006009004082002880500000207A0F47
:4011C00000E082007E00000728E35010000F04E0180A60000000010F010006E0781F80000000002000004000040000000040000000FF07FF4020F00508008300030004008A
:40120000040404042224000540A8402000000000000000000000000000000000000000000000000000000000044002000E1B10E00000000900002E1C000008E000202E1B08
:4012400000E330042E0A41000000001B00E000000200041300800100400000E03E00011F00002080000000003004000000D0002132FFFFFF00AF0F0418008300000000007A
:4012800004040404222300014000C0004040C000C000C000C000C00000000000000000000000000000000000010016E1E00000000000000080004080800080000000000080
:4012C0000220200000000000C00000FB3B0030000000000000B7B30000004000CC333300330000000700180100000000000000000000000000000000000000000000000057
:4013000000000000000000000000000000000000000000000000000000000000000000000000000000000000000000000000000000000000000000000000000000000000AD
:40134000000000000000000000000000000000000000000000000000000000000000000000000000000000000000000000000000000000000000000000000000000000006D
:40138000000000000000000000000000000000000000000000000000000000000000000000000000000000000000000000000000000000000000000000000000000000002D
:4013C00000000000000000000000000000000000000000000000000000000000000000000000000000000000000000000000000000000000000000000000000000000000ED
:0200000490006A
:0400000000004005B7
:0200000490105A
:04000000BC90ACAF55
:0200000490303A
:0200000039CBFA
:0200000490402A
:4000000000000000000000000000000000000000000000000000000000000000000000000000000000000000000000000000000000000000000000000000000000000000C0
:400040000000000000000000000000000000000000000000000000000000000000000000000000000000000000000000000000000000000000000000000000000000000080
:400080000000000000000000000000000000000000000000000000000000000000000000000000000000000000000000000000000000000000000000000000000000000040
:4000C0000000000000000000000000000000000000000000000000000000000000000000000000000000000000000000000000000000000000000000000000000000000000
:0200000490501A
:0C00000000012E16106900012E274A3462
:00000001FF